:020000040800F2
:1028000000400020352D00081D2D00081F2D000858
:1028100000000000000000000000000000000000B8
:10282000000000000000000000000000212D000852
:102830000000000000000000232D000859B6000829
:10284000852D0008852D0008852D0008852D0008A0
:10285000852D0008852D0008852D0008852D000890
:10286000852D0008852D0008852D00089D4600084F
:10287000852D0008852D0008852D0008852D000870
:10288000852D0008852D0008852D0008852D000860
:10289000852D0008852D0008852D0008852D000850
:1028A000852D0008852D0008852D0008852D000840
:1028B000852D0008852D000800000000991D0108E5
:1028C00002B4714649084900095649008E4402BCC9
:1028D0007047C04602B4714649084900095C490086
:1028E0008E4402BC7047C04603B47146490840009C
:1028F0004900095E49008E4403BC704703B4714629
:10290000490840004900095A49008E4403BC7047F9
:10291000002243088B4274D303098B425FD3030A1E
:102920008B4244D3030B8B4228D3030C8B420DD331
:10293000FF22090212BA030C8B4202D312120902BF
:1029400065D0030B8B4219D300E0090AC30B8B42FD
:1029500001D3CB03C01A5241830B8B4201D38B03AB
:10296000C01A5241430B8B4201D34B03C01A524150
:10297000030B8B4201D30B03C01A5241C30A8B4293
:1029800001D3CB02C01A5241830A8B4201D38B027E
:10299000C01A5241430A8B4201D34B02C01A524122
:1029A000030A8B4201D30B02C01A5241CDD2C30994
:1029B0008B4201D3CB01C01A524183098B4201D310
:1029C0008B01C01A524143098B4201D34B01C01AFB
:1029D000524103098B4201D30B01C01A5241C30873
:1029E0008B4201D3CB00C01A524183088B4201D3E2
:1029F0008B00C01A524143088B4201D34B00C01ACE
:102A00005241411A00D20146524110467047FFE739
:102A100001B5002000F0F0F802BDC0460029F7D053
:102A200076E7704703460B437FD4002243088B426E
:102A300074D303098B425FD3030A8B4244D3030B45
:102A40008B4228D3030C8B420DD3FF22090212BA0A
:102A5000030C8B4202D31212090265D0030B8B4286
:102A600019D300E0090AC30B8B4201D3CB03C01A70
:102A70005241830B8B4201D38B03C01A5241430B4B
:102A80008B4201D34B03C01A5241030B8B4201D33B
:102A90000B03C01A5241C30A8B4201D3CB02C01AA6
:102AA0005241830A8B4201D38B02C01A5241430A1E
:102AB0008B4201D34B02C01A5241030A8B4201D30D
:102AC0000B02C01A5241CDD2C3098B4201D3CB01B4
:102AD000C01A524183098B4201D38B01C01A524163
:102AE00043098B4201D34B01C01A524103098B4267
:102AF00001D30B01C01A5241C3088B4201D3CB0052
:102B0000C01A524183088B4201D38B00C01A524134
:102B100043088B4201D34B00C01A5241411A00D2E4
:102B200001465241104670475DE0CA0F00D049424D
:102B3000031000D34042534000229C4603098B42BD
:102B40002DD3030A8B4212D3FC22890112BA030A45
:102B50008B420CD3890192118B4208D389019211C7
:102B60008B4204D389013AD0921100E08909C3094C
:102B70008B4201D3CB01C01A524183098B4201D34E
:102B80008B01C01A524143098B4201D34B01C01A39
:102B9000524103098B4201D30B01C01A5241C308B1
:102BA0008B4201D3CB00C01A524183088B4201D320
:102BB0008B00C01A5241D9D243088B4201D34B003B
:102BC000C01A5241411A00D20146634652415B107D
:102BD000104601D34042002B00D54942704763465E
:102BE0005B1000D3404201B5002000F005F802BDA3
:102BF0000029F8D016E770477047C0461C21012312
:102C00001B04984201D3000C10391B0A984201D3CF
:102C1000000A08391B09984201D30009043902A2AD
:102C2000105C40187047C046040302020101010114
:102C300000000000000000000023C25C0133002AF5
:102C4000FBD1581E704700000448054B10B5834265
:102C500003D0044B002B00D0984710BDD4000020B7
:102C6000D40000200000000006480749091A8B1014
:102C7000C90FC91810B5491003D0044B002B00D060
:102C8000984710BDD4000020D400002000000000B0
:102C900010B5074C2378002B09D1FFF7D5FF054B62
:102CA000002B02D0044800E000BF0123237010BDB8
:102CB0004002002000000000A8210108054B10B5CB
:102CC000002B03D00449054800E000BFFFF7CCFF0C
:102CD00010BDC0460000000044020020A8210108E9
:102CE00007B501210B4B0C481A6C0A431A641A6C85
:102CF0000A4080210192019ADA6B49050A43DA639E
:102D0000DB6B0B400093009B00F03EF90CF01AF9CE
:102D1000FEE7C04600100240006CDC027047FEE790
:102D200070477047014B024A9A60704700ED00E01F
:102D3000002800080D488546FFF7F4FF0C480D49B0
:102D40000D4A002302E0D458C4500433C4188C4206
:102D5000F9D30A4A0A4C002301E013600432A2426C
:102D6000FBD30FF0C3F9FFF7BBFFFEE700400020E5
:102D700000000020D4000020943F01084002002001
:102D8000E02B0020FEE70000054B064A9B681B0570
:102D90001B0F9B009B581F221340D8407047C04612
:102DA00000100240F4220108054B064A9B685B04B0
:102DB0005B0F9B009B581F221340D8407047C046B2
:102DC00000100240D42201080A4AD368DB439B0763
:102DD0000BD0536808491B045B0F9B0058580C2309
:102DE000D2681A4203D1400070470448F7E7032332
:102DF0005843F9E700100240B422010800366E0182
:102E00003821104A10B593680B40102B15D00DD8FF
:102E1000082B15D00720536812685B0B03400A4942
:102E20009B00D20A02405858D04008E00821183BC5
:102E30008B43EFD18020000201E0FFF7C5FF10BDFA
:102E40000248FCE700100240B422010800366E017F
:102E500010B50400FFF7D4FF2060FFF795FF606016
:102E6000FFF7A2FFA06010BD104B10B5CB5CD4687B
:102E7000C0189368016823431469234354692343AA
:102E800094692343D4692343546A2343084C214063
:102E90000B4303605368C3601368126A836043681E
:102EA0001B0C1B0413434360002010BD3323010897
:102EB0000F80FFFF0023036043608360C3600361F2
:102EC00043618361C361036243627047F7B50025C4
:102ED0004B680A6800935F1E1300EB4009D1012F75
:102EE00005D84368C96893434A43134343600020AD
:102EF000FEBD01241300AC40234022422BD01A0017
:102F000003265A435643B446F64301966646046880
:102F1000B443009E564334430460012F06D88C68A6
:102F200087685443019E37403C4384600C69C768FE
:102F30005443019E37403C43C460009C022C0AD19C
:102F40004C69FF2B09D80F26524356436243036A4C
:102F5000B3431A4302620135BAE70F261B0A5B43EB
:102F60005B435E435C43426AB24322434262F2E700
:102F7000044B03600323436000238360C360036149
:102F800043617047FFFF0000014B18607047C04667
:102F9000000000200368020070B501205B0620D409
:102FA0004E680B68486933438E6815683343CE68B2
:102FB0000C6A33430E6933438E6903433343CE694E
:102FC000000C33430B4E234335402B430425136041
:102FD0005368AB431843802350609B019C4205D04B
:102FE0000020D36904490B40D36170BD4B6A9BB28A
:102FF0001361F5E74000FFFFFFF7FFFF00230360C9
:1030000043608360C360036143618361C3610362A2
:1030100007334362704700007FB5C36804000D00AA
:103020009B0402D5012004B070BD4B68C968C2681A
:103030000B4329690B432D490A401343C36043697D
:103040002B4A1340AA69134343610369294A134079
:10305000AA68134303614369274A13406A6913430B
:10306000436101A8FFF7F4FE039B002BDAD0296827
:103070000029D7D0192058438023AA691B019A42FE
:103080001DD14900FFF744FC64210600FFF7C6FC90
:10309000C80032306421FFF73BFC642185B2300068
:1030A000FFF736FC072300012B40C018F8236D0002
:1030B0005B001D40401980B2A0600020B3E789008A
:1030C000FFF726FC64210600FFF7A8FC0801323058
:1030D0006421FFF71DFC642105003000FFF718FC98
:1030E00000012D18ADB2A560E7E7C046F3E9FFFF88
:1030F000FFF7FFFFFFCFFFFFFFFCFFFF96239B01C2
:103100000C2203600023026143608360C36043615B
:103110008361704710B5074B1B78012B05D8082039
:1031200006F0AAFC082006F0A7FC0022024B1A7049
:1031300010BDC046EA1A00207C00002037B52022CE
:103140000125254B254CD96B1143D963D96B11400F
:1031500001910199996B29439963996B29400091D9
:103160000099D96A1143D962D96A9143D96200237F
:10317000F021A3621A4B89011868FFF7C9FB80236D
:103180000138E06222681748134323608023E26815
:103190005B0013430222E360236893432360124BD6
:1031A0001A68AA431A60C168104A11409C2292030F
:1031B0000A43C26019680E4A11400E4A0A43402170
:1031C0001A600D4ADA600D4A9A605A68120C1204AD
:1031D0000A435A6037BDC046001002400014004048
:1031E000000000200000014080000240FFFFC0FFFF
:1031F0000F80FFFFB02A0000640200201814005066
:10320000014B18787047C04660020020F8B5274D82
:1032100004002B78834211D0002810D10120244AC9
:10322000136883431360234A13688343136001F0D8
:1032300081FD8022204B52009A622C70F8BD1F4BFA
:10324000FF211E5CB6013000FFF762FBFF23002266
:103250009B019E421BD01100194E0B0082424B4134
:10326000184F5B423B4001339700FF330132F3516B
:10327000402AF2D101230E4A11681942DDD10D48CE
:1032800001681943016011680B431360D5E7012100
:10329000074A13688B431360064A13688B43136015
:1032A0008022054B52009A61C7E7C0465C020020AD
:1032B0000014004080000240001400503B2301082D
:1032C0006402002000FFFF0010B5054B587CFFF79B
:1032D0009DFF0022034B1A80034B1A7010BDC0469D
:1032E000B71B00206202002060020020782170B528
:1032F0001D4A1E4B12781E4D4A431A801D4A1E4B12
:1033000012781E4C1A70AB7F002B07D1FFF7DCFF41
:103310002378002B01D0FFF7FDFE70BD0122184B72
:103320001A702378002B19D000242000FFF76EFFBD
:10333000322001F0D7FC2B00FF3301349B7CE4B238
:10334000A342F2D2FFF7E6FEA97F00230D4A3D29F2
:1033500002D00A234B4301331380DEE72B00FF33F7
:10336000987CFFF753FFEFE7880000205E02002003
:10337000B81A00205C020020191800207C000020F0
:103380006002002062020020F8B5802304000826B5
:103390000127114D5B00AB6263B2002B17DB80236A
:1033A0009B00AB62380001F0C5FC80235B00380055
:1033B000AB6101F0BFFC80235B0038006400AB62AE
:1033C000013E01F0B7FCE4B2002EE5D1F8BD802348
:1033D0009B00AB61E6E7C04600040050F7B58025CE
:1033E0008026214C214FAD0076000190BD61012067
:1033F000A66201F09FFC8020019BBD620343180080
:10340000FFF7C2FF23681A4A01201340236001F02E
:1034100091FC102300250193012223696D005B0AB2
:1034200013401000ADB2A6611D4301F083FC0120E2
:10343000A66201F07FFC019B013B0193002BEBD1C5
:1034400022680B4B01201A408023DB0213432360C8
:1034500080239B00BB6101F06DFC80239B00280052
:10346000A661A361FEBDC0460004005000140050D8
:10347000FFFFF3FFF8B58023040010260127114D4C
:103480005B00AB6223B2002B17DB80239B00AB6297
:10349000380001F04FFC80235B003800AB6101F085
:1034A00049FC80235B0038006400AB62013E01F000
:1034B00041FCA4B2002EE5D1F8BD80239B00AB6196
:1034C000E6E7C04600040050F7B5802480270F4E81
:1034D0000F4DA4007F0001910090B4610120AF6204
:1034E00001F028FC0098B462FFF74EFF012001F0C4
:1034F00021FC0198FFF7BEFF012001F01BFCB46125
:10350000012001F017FCAF61AC61F7BD0014005061
:10351000000400501FB580228021564B92009A6112
:10352000554B4900996180219A6100200902FFF7FB
:10353000CBFF00210800FFF7C7FF37204F49FFF7F7
:10354000C3FF22213620FFF7BFFFC62110208900CC
:10355000FFF7BAFF11204A49FFF7B6FF1220494989
:10356000FFF7B2FF13204849FFF7AEFF8421142074
:103570008900FFF7A9FF49204449FFF7A5FF7B20F9
:103580004349FFF7A1FF7D204249FFF79DFF4820F7
:103590004149FFF799FF40204049FFF795FF10226E
:1035A00068463F490EF0E8FD00246B46195D230391
:1035B0001943092089B20134FFF786FF102CF4D19A
:1035C000F8211C20C900FFF77FFF1D203549FFF7B8
:1035D0007BFF1E203449FFF777FF1F203349FFF799
:1035E00073FF3E203249FFF76FFF73203149FFF729
:1035F0006BFF77203049FFF767FF19202F49FFF74E
:1036000063FFB42128200901FFF75EFFAA212920CA
:103610000902FFF759FFCC212A20C901FFF754FF07
:103620002C202749FFF750FF2F202649FFF74CFF9A
:1036300053202549FFF748FF7E202449FFF744FF28
:1036400046202349FFF740FF4A202249FFF73CFF6D
:1036500007202149FFF738FF9021204B204A3320D3
:1036600009021A80FFF730FF00213F20FFF72CFFEF
:103670001FBDC04600140050000400501F9D0000F4
:103680003A030000DB030000DF030000B22A000061
:10369000DC73000020E90000A833000016350000AC
:1036A0004623010855E50000584C00005AC60000AA
:1036B000C694000091460000EF8800004E10000004
:1036C0002218000090980000282000003E300000E2
:1036D0000A60000030540000CE6100006603002044
:1036E0000090FFFF10B504007E20FFF777FEC34374
:1036F0009BB2DB0BA3420CD00123C0216340000529
:10370000DB03000D18438901014389B27E20FFF7D6
:10371000DBFE10BD10B5134904001320FFF7D4FEE3
:1037200012201149FFF7D0FE11201049FFF7CCFEFF
:103730007A211020FFF7C8FE002C0DD000211420A4
:10374000FFF7C2FEC92149014920FFF7BDFE7B20DA
:103750000749FFF7B9FE10BD19211420FFF7B4FE89
:103760000449F1E7BE0300007B0300007B02000078
:1037700020840000382A000010B5094C2388002955
:1037800008D04022C240134399B233202180FFF772
:103790009BFE10BD4121494201411940F5E7C04659
:1037A0006603002010B5040051200A49FFF78CFE83
:1037B00007200949FFF788FE21050820090DFFF7BA
:1037C00083FE802321021B02090D08201943FFF705
:1037D0007BFE10BD33A00000D70A00000C4B10B5D3
:1037E000C1184B1E9941040049420A4B890A8902BB
:1037F000C9185120FFF768FE0748084B6043084985
:10380000C018FFF785F881B20720FFF75DFE10BDF5
:10381000BFF5FFFF409400009826030050C300004E
:10382000A0860100074B0100400810B5C018FFF743
:103830006FF880218901014389B20720FFF744FE18
:1038400010BDC046D6DF030070B5040031200D0066
:10385000FFF7C4FDA02361051B02490D19430600B3
:103860004620FFF731FEC0216D056D0D490129434A
:103870007920FFF729FE7A200449FFF725FE04216D
:103880003143312089B2FFF71FFE70BD9A28000036
:103890005C2110B5032802D8034B4000C15A4320D5
:1038A000FFF712FE10BDC04600290108064A222378
:1038B00010B5914200D81A3B802100021843014301
:1038C0003620FFF701FE10BDFF3EAB0110B504002E
:1038D00081B23820FFF7F8FD3920210CFFF7F4FD05
:1038E00010BD000010B50349000201434720FFF757
:1038F000EBFD10BD42600000F0B5CCB285B02000F9
:103900001E000D0A0291FFF769FD01AFFB88EDB2C1
:10391000AB400100AE4099433143200089B2FFF72C
:10392000D3FD05B0F0BD000010B537200549FFF705
:10393000CBFD00213020FFF7C7FD30200249FFF703
:10394000C3FD10BD1F9F0000F1BF0000F7B51C00B4
:1039500008AB1E78009009AB019170200021150082
:103960001F78FFF7B1FDA021090231434D20FFF779
:10397000ABFDD821C90139434E20FFF7A5FD210237
:1039800029434F20FFF7A0FD009B78201902019BDF
:103990001943FFF799FD0020FFF7A4FFFFF7C4FFCD
:1039A000F7BD00000A4B012110B5984202D9002151
:1039B000013007D10420FFF7DFFE00210320FFF7CD
:1039C000DBFE10BD0420FFF7D7FE0121F6E7C0465D
:1039D000FF3EAB0110B53120FFF700FD02239843F5
:1039E00081B23120FFF770FD00212B20FFF76CFD25
:1039F00010BD000070B505003120FFF7EFFC04009A
:103A0000002D06D108239C43A1B23120FFF75CFDB5
:103A100070BDAB1E5A1E9341AD21DB0389011943D2
:103A20002920FFF751FD0120A8428041054940426D
:103A3000800301432820FFF747FD0821214389B275
:103A4000E3E7C046382B000010B53120FFF7C6FC75
:103A50000423984381B23120FFF736FD10BD10B525
:103A600000212420FFF730FD10BD0000DB2110B540
:103A70002120C900FFF728FD24200249FFF724FD7B
:103A800010BDC0467FC1000010B550200149FFF7AE
:103A90001BFD10BD18BB000070B50C00631E9C41DF
:103AA0000500FFF7F1FF0320FFF71CFF0D4B6142FC
:103AB0001940E0231B02C9187020FFF705FD002103
:103AC0003020FFF701FD30200749FFF7FDFC802380
:103AD00006495B026943C9187120490CFFF7F4FCE1
:103AE00070BDC04600BCFFFF020300001DA614000D
:103AF00010B550200149FFF7E7FC10BD183B00004E
:103B000010B500213020FFF7DFFCE8213720490104
:103B1000FFF7DAFC10BD000010B500217020FFF7A0
:103B2000D3FC0020FFF7DEFEFFF7E2FF002130208C
:103B3000FFF7CAFC30200249FFF7C6FC10BDC046A3
:103B4000F1BF000010B5C3217020FFF7BDFC72204B
:103B50000A49FFF7B9FCC1215820FFF7B5FC5C20EA
:103B60000749FFF7B1FC8E215D20C901FFF7ACFCCE
:103B70005E200449FFF7A8FC10BDC0466530000078
:103B8000655600000432000010B500213020FFF718
:103B90009BFC10BD10B500213F20FFF795FC68216C
:103BA0005920FFF791FC1E2001F09CF8FFF7ECFF75
:103BB00010BD10B50020FFF795FE7E20FFF70EFC2C
:103BC000382328219843014389B27E20FFF77CFCEB
:103BD00010BD000010B500213620FFF775FC37201E
:103BE0000749FFF771FC52200649FFF76DFC0021E1
:103BF0003020FFF769FC30200349FFF765FC10BD5A
:103C00001F9D00008F020000FEC1000010B5FFF7ED
:103C1000D0FFFFF76DFFFFF7DDFF10BD10B50021EE
:103C20005120FFF751FC10BD054B10B51B78002B40
:103C300005D001210020FFF79FFDFFF775FE10BDA5
:103C40006403002010B50400FFF71EFF0020FFF7FB
:103C500049FE00217020FFF737FCFFF700FF3020FE
:103C60000349FFF731FC002C01D1FFF741FF10BDE4
:103C7000FEC1000010B530200149FFF725FC10BD42
:103C8000FAC30000F8B51D0007000E001400FFF78E
:103C9000FBFE281E05D0A02380220320DB05520056
:103CA0009A61FFF71FFEFE232102DB011940013359
:103CB000FF3319437020FFF707FCFFF7DBFF3220CB
:103CC00001F010F880231249BFB279435B02C91892
:103CD0007120490CFFF7F8FBFFF70AFF300001F0F5
:103CE00001F8FFF7D1FE002D07D0A0238022DB05CD
:103CF000520000209A62FFF7F5FD00217020FFF7C7
:103D0000E3FB30200349FFF7DFFBFFF7F1FEF8BDCF
:103D10001DA61400FEC1000010B50400FFF7A6FEAA
:103D2000FFF7B2FE0020844200D00330FFF7DAFD37
:103D300070200349FFF7C8FBFFF79CFF10BDC0468A
:103D4000C3C3000070B590B0040040226846184913
:103D50000EF012FA392C08D82F2C25D8232C25D078
:103D60000EAD2A2C09D010B070BD2300413B373C6A
:103D7000032BF8D8A4006C44250028880D4C0E4E67
:103D800060430E498019FEF7C3FD81B27120FFF731
:103D90009BFB6B8809495C43A019FEF7B9FD81B212
:103DA0007220FFF791FBDEE7303CE3E70FADE4E77D
:103DB000C02101084C930100881300001027000067
:103DC000F0B5002485B01E000AAB1F880BAB1B8822
:103DD0000500019102920393A0421AD105B0F0BDF3
:103DE000FFF7B0FFFFF784FE019B002B02D0029883
:103DF000002C06D02B5D30002A2B02D0232B00D0C4
:103E0000380000F06FFFFFF73FFE039800F06AFFF5
:103E10000134285D0028E3D1E0E7000070B50D0013
:103E20000400FFF731FEC22170200902FFF74CFBAE
:103E300080230B49ADB269435B02C9187120490C5C
:103E4000FFF742FB0020844200D00330FFF74AFD19
:103E5000FFF710FF322000F045FFFFF749FE70BD6D
:103E60001DA6140010B5042808D8FEF733FD03087A
:103E70000A0C0E0006495220FFF726FB10BD05492B
:103E8000F9E70549F7E70549F5E707200449F3E7AE
:103E90008F8200008FA200008FC200008FE200001E
:103EA0006F04000010B50020FFF7DCFF512002492D
:103EB000FFF70AFB10BDC0464080000010B504208B
:103EC000FFF7D0FF51200249FFF7FEFA10BDC046B0
:103ED0004090000010B56720FFF780FAC005C00DC4
:103EE00010BD10B5FFF7F6FF4008A03800B210BDB6
:103EF00010B56420FFF772FA10BD000070B506001F
:103F00000D20FFF76BFA03B2DD430400ED0F002B29
:103F100007DB0E20FFF762FA034B24041C40044326
:103F20003460280070BDC0460000FF0770B5060071
:103F300069200D00FFF752FA040003040BD46A2035
:103F4000FFF74CFA0C4B24030005000D1C40044302
:103F50000220346070BD6820FFF740FA03000020A3
:103F60001A04F7D40548DB04DB0C58430449FEF778
:103F700059FD28800120EDE700F0FF00EB12000062
:103F800010270000912110B532208900FFF79CFA1C
:103F900010BD000010B532200149FFF795FA10BDA1
:103FA0004502000010B5FFF791FCC02151208900A7
:103FB000FFF78AFAFFF7B8FC10BD10B5FFF7E4FD74
:103FC00010BD10B5FFF7DEFFFFF7DEFD10BD10B529
:103FD0000B20FFF703FA0005000F10BD10B50C20F1
:103FE000FFF7FCF9800BC0B210BD10B50C20FFF735
:103FF000F5F90005800F10BD70B504001E2000F01B
:1040000071FE80213F200902FFF75EFA592017490F
:10401000FFF75AFA250068215920FFF755FA48356D
:1040200021885F200234FFF74FFAAC42F8D1142008
:1040300000F058FE59200E49FFF746FAC824012522
:104040000C20FFF7CBF9284206D1013C0520E4B251
:1040500000F048FE002CF3D100210220FFF734FAD3
:104060001E2000F03FFEFFF795FD70BD6880000048
:104070006828000010B5FFF78DFD00210220FFF732
:1040800023FA00213F20FFF71FFAFFF74DFCC02164
:104090003F208901FFF718FA59200449FFF714FA65
:1040A00059200349FFF710FA10BDC04668400000D0
:1040B0006830000030B58BB02422194901A80EF0F9
:1040C0005BF80020FFF70EFC002501AC618820782A
:1040D0000135FFF7F9F90434092DF7D10024114A0D
:1040E00063005F20D15A0134FFF7EEF9072CF6D1B7
:1040F000142000F0F7FD0C495920FFF7E5F9B42032
:1041000000F0F0FD68215920FFF7DEF90021702052
:10411000FFF7DAF900215820FFF7D6F90BB030BDD0
:1041200000220108082901086808000010B51B4B8F
:104130001B78012B2DD1FFF7A7FC0020FFF7D2FB46
:10414000C32170200902FFF7BFF9FFF793FD32206A
:1041500000F0C8FD12497120FFF7B6F9FFF7C8FC5F
:10416000502000F0BFFDFFF78FFC0E497120FFF7D4
:10417000ABF9FFF7BDFC502000F0B4FDFFF784FC65
:1041800000217020FFF7A0F930200749FFF79CF9C4
:1041900010BD022BFCD1FFF78DFFF9E7EB1A0020D1
:1041A0001C3E0000D5340000FEC1000070B50500C3
:1041B0000C00FFF75BFCFFF767FC0020854200D096
:1041C0000330FFF78FFB07497020FFF77DF9FFF7FA
:1041D00051FD322000F086FD2000FFF7B3FDFFF710
:1041E00087FC70BDC3C300000222064B99681142D0
:1041F000FCD00122187399681142FCD0D868C0B273
:104200007047C0460038004010B50400000CC0B232
:10421000FFF7EAFF200AC0B2FFF7E6FFE0B2FFF7C0
:10422000E3FF10BD70B5A0250826094CED0505205B
:10423000AE62FFF7D9FFFF20FFF7D6FFAE61C007E0
:1042400005D50A20013C00F075FD002CEFD170BDB2
:1042500040420F0070B5A02408250600E405A562C1
:104260000620FFF7C1FFA561FFF7DCFFA562202054
:10427000FFF7BAFF3000FFF7C7FFA561FFF7D2FFD6
:1042800070BD0000F0B585B06B46039002921A7BBA
:104290008023A0255B0001919B1AED05029C9C42A6
:1042A00000D91C0008231E00AB620620FFF79CFF0C
:1042B000AE610220AE62FFF797FF0398FFF7A4FFFD
:1042C000019E37190F2C5CD94022012080273049EC
:1042D0007F010B6893430B602E4B1A6882431A6070
:1042E0002D4A1668864316602C4E77601F682C4E48
:1042F00037401F601768374090263E431660294FAD
:10430000294EDE609F605E68360C360426435E6090
:10431000019ED66097605668360C36042643566078
:10432000224EB446002667463E701F680236374369
:104330001F601F6807431F60136803431360402218
:104340004B68184348600B6813430B604B681E436F
:104350004E6063461B78002BFBD00823AB61FFF750
:1043600061FF039B1B190393019B1B190193029B84
:104370001B1B02938023029A5B00002A8ED105B09A
:10438000F0BD30780136FFF72FFFBE42F9D1E4E7E8
:104390000038004044000240580002400000024043
:1043A0000F80FFFF0C3800406903002068030020E5
:1043B000F0B5A027082680210124344BFF058FB0DB
:1043C000BE61DA6BC9010A43DA63DA6B04A80A40FA
:1043D0000392039A9A6B002522439A639A6B2240B8
:1043E0000292029A5A6B22435A635B6B23400193F9
:1043F000019BFEF7BDFD022304A9059338001B199C
:1044000006930996079508940494FEF75FFD092327
:1044100004A93800023E04960993FEF757FD1C4B91
:104420001C4A996880201140A022D2040A433F21EF
:104430009A60DA68C0058A43C2211643164ADE60D4
:10444000890053581B021B0A0343535080231B014E
:10445000136004A8FEF7D2FD82235B000593033BA3
:104460000894FF3B0D4C0793FF33FF33200004A952
:10447000099304950A950B950C95FEF78BFD402347
:104480002268134323600FB0F0BDC0460010024005
:1044900000000140FFFFFFC000E100E000380040E5
:1044A000F8B5A023150008220600DB0503209A6258
:1044B0000C00FFF799FE3000FFF7A6FE0F2D08D87D
:1044C0006519AC424FD0FF20FFF78EFE20700134FB
:1044D000F7E7402101208027254A7F0113688B439D
:1044E0001360244B19688143196023490E68864381
:1044F0000E60224E77601F68214E3740B4468426F6
:1045000076013E431E6066460F6837401D4E3E43AF
:104510000E601D4EDC609E605C68240C24042C43FD
:104520005C601A4CCC608E604C68240C24042C43D4
:104530004C600024164D2C701E68023426431E6009
:104540001E6806431E600B6803430B6040215368DE
:104550001843506013680B43136053681C43546046
:104560002B78002BFCD0A0230822DB059A61F8BD34
:104570000038004044000240580002400000024061
:104580000F80FFFF101000000C380040690300206E
:1045900068030020F0B587B0059380230705040B5E
:1045A0003F0D5B010190029103922403DB1B039AF0
:1045B000002A01D107B0F0BD039D9D4200D91D0026
:1045C000294E3368A34206D0802220002749520199
:1045D000FFF766FF3460254E2A00BE1931000298AD
:1045E0000DF0D3FD002824D00023F25CFF2A2ED149
:1045F00001339D42F9D100232A003000029904932F
:104600000DF0BAFD049B002B2AD02000FFF722FEFC
:10461000059B164E002B1CD0EF193A0031002000EC
:10462000FFF730FE80225201FF21D21BF0190DF05E
:1046300093FD019B00275B190193029B5B19029379
:10464000039B5B1B039380235B01E418AFE701230B
:10465000D2E78022310020005201FFF713FEE8E785
:104660002A0002990198F8E7040000206A0300205C
:1046700010B5040B24032000FFF7ECFD054B1B686D
:10468000A34205D18022FF21034852010DF064FDB1
:1046900010BDC046040000206A0300208020144999
:1046A00080010B6810B5034221D00224114B1A6817
:1046B00022421CD01A68A2431A60C0220E4B4860E6
:1046C000520199681142FCD1802299681142FCD1B3
:1046D000C022D20099681142FCD102215A688A4353
:1046E0005A605A6801398A435A60044B197010BDE8
:1046F00000000240440002400038004068030020EF
:1047000070B540262025094C0120A66100F012FB5F
:10471000A561012000F00EFBA662012000F00AFB5B
:10472000A562012000F006FB70BDC04600140050D9
:1047300070B540252026094C0120A56200F0FAFA48
:10474000A662012000F0F6FAA661012000F0F2FA5C
:10475000A561012000F0EEFA70BDC04600140050C3
:10476000F7B5234C234A23680190134023600823A4
:1047700000252027012600933000A76200F0DAFA16
:104780003000A76100F0D6FA300000F0D3FA2369B8
:104790006D00EDB25B0600D535433000A76200F036
:1047A000C9FA009B013BDBB20093002BE4D12268E5
:1047B000104B01201A4080235B0113432360A76242
:1047C00000F0B8FA019A4023002A0ED0A3612026F7
:1047D000012000F0AFFAA661012000F0ABFAA6625A
:1047E000012000F0A7FA2800FEBDA362EFE7C04653
:1047F00000140050FFCFFFFFF8B52023254C050023
:10480000A362012000F096FA08266BB2002B3BDB76
:104810004023A3622027012000F08CFA013E0120F2
:10482000A76100F087FA6D000120A762F6B200F0E0
:1048300081FAEDB2002EE8D140252368164E012002
:1048400033402360A56100F075FA0120A76100F0F4
:1048500071FAFF232269110029402A4217D0013B37
:10486000DBB2002BF6D101256D422023A36201208B
:1048700000F060FA802322685B013240134323601A
:1048800040232800A361F8BD4023A361C2E70D00C7
:10489000EBE7C04600140050FFCFFFFF70B50400E7
:1048A0000D0000266A1EB2420EDC2B00591E8B4101
:1048B0005B4213400120E41800F03CFA0120FFF7AE
:1048C0004FFF2070280070BD012000F033FA002057
:1048D000FFF746FFA0550136E4E770B50400451820
:1048E000AC4201D1002070BD2078FFF785FF013474
:1048F0000028F5DA01204042F5E700007823F7B5FB
:1049000000251F4EB36100240823270001930120D6
:1049100000F010FA3A00F02733693F021F40974237
:1049200020D10134032C1ED18022802112020902E1
:104930001A400B421ED05A041ED59A041ED5DB0421
:1049400005D4104BAA009B18185D132811D101350E
:10495000052D0DD078230722B361521B773B93407E
:10496000B362D0E70124019B013B0193002BCED120
:104970001320FEBD1400E4E70124E2E70224E0E78F
:1049800000040050162901080222054B99681142C3
:10499000FCD00122187399681142FCD0DB68704783
:1049A0000030014070B51D0004AB00241C5F431AA9
:1049B000601B5843511AFEF735F8401900B270BD1C
:1049C00070B5124CC001241825000C203635260085
:1049D00028701225373635704236357025007A3505
:1049E0002870581A8001511AFEF71CF82125382327
:1049F0002D263830C0B2DAB22900904200D33100FF
:104A0000E1540133792BF6D170BDC0466E130020FE
:104A10007047A02340225039DB0510B59A6204008C
:104A2000C8B2FFF7B1FF102023091843FFF7ACFF0E
:104A30000F202040FFF7A8FF10BDF8B51400043088
:104A4000C0B21D00FFF7E5FFA02340222600DB05D2
:104A50009A612F19BE4200D1F8BDE8B2002C00D0F7
:104A60003078FFF791FF0136F4E7000070B50425B8
:104A7000034CC9B2A562C0B2FFF7DFFFA56170BDEC
:104A800000040050042370B505000024064EB362F4
:104A90000022E1B22B0010000134FFF7CEFF082CFA
:104AA000F6D10423B36170BD00040050A02340225E
:104AB00010B5DB059A62FFF767FF10BDF8B5042358
:104AC000124E0400B3624020FFF7F0FF104A002CA2
:104AD00007D0104B01251F00072C0AD8621ED201F7
:104AE000D218802321000020FFF7A7FF0423B36121
:104AF000F8BD290001353A0080230020EDB2FFF710
:104B00009CFF8037082DF4D1F0E7C0460004005028
:104B1000EE1600206E13002010B50820FFF7CEFF20
:104B200010BD10B50130C0B2FFF7C8FF10BD10B501
:104B30000020FFF7C3FF10BD10B5032804D00728DD
:104B400009D0074B185C03E0064B1878A6231843DE
:104B5000FFF7ACFF10BD044B18781530C0B2F7E773
:104B60000A0000209B1A002086000020042370B554
:104B70000024064DAB6220000134E4B2FFF7DCFFF5
:104B80000B2CF8D10423AB6170BDC046000400506B
:104B90000422074B10B5E2209A62FFF787FF00243A
:104BA00020000134E4B2FFF7C7FF082CF8D110BD94
:104BB00000040050802170B501253E4B49011A6C5C
:104BC0008CB00A431A641A6C02A80A400192019A36
:104BD0005A6B00242A435A635B6B02262B400093D6
:104BE000009BFEF7C5F90323A020049302A91D33FF
:104BF000C00502930695039607940594FEF766F99F
:104C0000A020802302A9C00502930694FEF75EF956
:104C100002A8FEF7F3F982235B0003930695FC33A9
:104C2000254D0793D93BFF3B280002A90893029426
:104C30000494059609940A94FEF7ACF940232A6877
:104C4000E22013432B6004231C4DAB62FFF72EFFC1
:104C5000782000F047F820000134E4B2FFF76CFF41
:104C6000082CF8D12B20FFF721FF012000F03AF8A3
:104C70002E20FFF71BFF012000F034F82F20FFF754
:104C800015FF2F20FFF712FF2F20FFF70FFF2F2018
:104C9000FFF70CFF282000F025F84020FFF706FF63
:104CA000AF20FFF703FF04230020AB61FFF7EAFE0C
:104CB0000CB070BD001002400030014000040050F4
:104CC00070B50425064C2820A562FFF7EFFE4020B2
:104CD000FFF7ECFEAE20FFF7E9FEA56170BDC04610
:104CE00000040050FA2310B59B00584300F022F84E
:104CF00010BD0000C0200B490B4B0C4A4B60136ADF
:104D000000061B021B0A0343136200238B60073358
:104D10000B603021064B1960136A1B021B0A1362D9
:104D20007047C04610E000E0FF52070000ED00E0D1
:104D3000701700200A4B70B51B680A4C58430023BB
:104D40006668A168A2689142FCD0B51A914200D968
:104D50005542CB185B19984200D870BD1100F1E79D
:104D60007017002010E000E0084B1A682832137812
:104D70000133DBB2072B00D9012313700122044B4E
:104D80001A70044A044B12781A707047B01A002047
:104D90004A180020211C0020BC0000200122064BE4
:104DA0001A70064B1A68333213780133DBB2032BC7
:104DB00000D10023137070474A180020B01A002059
:104DC000012305494A7D5A404A75044A1370044A32
:104DD0001370044A13707047B81A00204918002055
:104DE0004E180020601800200123024A11784B4021
:104DF00013707047941A0020064A10B51378002BE0
:104E000003D00549054B0978997700231370FEF705
:104E10006DFA10BD1C1800201A180020B81A0020C6
:104E2000012110B5134C05202378594021704B42C5
:104E300059410F2349421940A1231B01C9180BF006
:104E40008CF9002321780C4A994202D113006F3368
:104E50001B7811006E310B70703211781B011943F1
:104E6000B0231B0219434820FEF72EFB0122034BFF
:104E70001A7010BD1B180020B81A002060180020FE
:104E800010B5174B1B78022B08D006F0BFF8012095
:104E900006F06CF9022000F0B7FB10BD0022114BA8
:104EA0001A70114B1B785BB2934208D00F4B1988D4
:104EB0000F4B19800F4B1A700F4B01321A700120E3
:104EC00006F054F90D4B0E4C1B78002B04D00BF060
:104ED000F3FD03232370E0E70A4B1B78FAE7C04693
:104EE000EA1700207C1A0020A21700205C38010875
:104EF000561800207E000020A0170020B7210020B7
:104F0000BC000020211C002070B5114B1B78013B18
:104F1000012B10D900240F4B0F4D1C700F4B1B7829
:104F2000A34209D00BF084FA01220D4B2C701A70A9
:104F30000C4B4F321A8070BD0B4A137006F066F8A6
:104F4000012006F013F90BF0B7FD03232B70F2E7F5
:104F5000EA170020D01B0020BC000020B721002051
:104F60004E1800203C1800207C1A002010B5134C6D
:104F70000320236833331978012912D005F068F92A
:104F8000011E11D022682C3211784B424B41002077
:104F9000DBB21370814201D1094A10780021C01898
:104FA000C0B2FEF775FC10BD064B1A682C321378A0
:104FB00058424341D8B21070F3E7C046AC1A002003
:104FC000961A0020B01A00200B4BDA7C002A02D07F
:104FD0001B7D002B0ED10322084B01211A700022E9
:104FE000074B1A70074B1970074B1B788B4201D087
:104FF000064B1A707047C046B81A0020541800209B
:10500000D01B002047180020211C0020BC000020DD
:105010003F4B70B51B780400002B2DD005F018F91C
:10502000051E0BD1032009F051FE3A4B1D703A4B7F
:105030001B7859B2002B02D00BF010FB70BD374A21
:10504000374B384D002C13D00120197010700BF025
:105050001BFA287C8007800F0BF030F90500280030
:105060000BF01EF92200012128000BF01BFAE5E7E6
:1050700014701C70ED89F2E704F082FA041EDDD191
:105080000025244B14221870274B21001870274844
:105090000DF062F805F0BAFF200009F017FE244E6B
:1050A0007557002D1DD0234B1B78C72B02D902F05A
:1050B00081F8C3E7204D0621E87F0130FDF798FD18
:1050C000E97707F0F7FA00212000715601F0A6FFFA
:1050D00001221A4B1A801A4B1C700122194B1A70AC
:1050E000ACE7194B0F4C1B685A1E9341174A01330A
:1050F000137007F0DFFA0121080001F08FFF012192
:10510000A379134A01330B40D554124B1D70E4E7C9
:10511000B72100207C1A0020B3210020B2210020FA
:10512000B1210020B81A0020A4170020A5170020E4
:10513000A217002033180020B91A002056180020AA
:105140007E000020601800209C170020E21A00203A
:105150005B1800207818002010B50120FFF758FFD9
:1051600010BD000070B5264B1B78002B1DD1254CBF
:105170002378002B19D00125234B1D7012280CD148
:10518000002A0AD1002908D0204B1D70204B1A702C
:10519000204A1378002B01D1237070BD2D21013BD3
:1051A000DBB213701C4AD154F7E711281BD0122828
:1051B00004D00A281BD00020002303E0174B184816
:1051C0001B780078002A15D10029E6D101250F4C63
:1051D0002570002A11D1002900D00300114A9B003C
:1051E0009B589847D9E7104B10481B78E9E7104BBC
:1051F000187CE1E70029D0D0E8E70029EDD1CCE721
:10520000211C0020BA17002051180020E9170020A7
:10521000BC000020BB170020BC170020ED1A0020A6
:10522000EE1A002018000020EF1A0020F01A0020CB
:10523000B71B00200022044B1A70044B01321A7075
:10524000034B1A707047C046911A00204E18002078
:10525000601800200A4910B50A780A4B002A08D1C4
:10526000DA7E50424241DA7601230B70FFF7E2FF0B
:1052700010BD1A7F504242411A770023F5E7C0461D
:1052800077170020B81A00200B4970B50B780B4C2B
:105290000B4A0C48002B0AD1D57ED3762570147F9B
:1052A0000470012013770870FFF7C4FF70BD2378E6
:1052B000D37603780020F5E77617002075170020D5
:1052C000B81A0020741700200D4910B50A780D4B4C
:1052D000002A09D1987F0C4A10703D229A77012349
:1052E0000B70FEF703F810BD1900084AFF31897CE6
:1052F0001278914202D100229A77F2E73D22FBE731
:105300001C180020B81A00201A18002019180020B4
:1053100010B50F4A0F48937959424B410021DBB237
:1053200093718B4200D048317431521802600A4A9E
:105330001378002B03D101331370084A1370002037
:1053400005F014FF064B1A88064B1A8010BDC046A4
:10535000B81A0020AC1A002078180020601800202D
:105360005E3801087A180020F7B5664B664A00934C
:105370001B780192002B3DD113785BB2002B0AD031
:10538000624B1B783833DBB2062B04D8604B1B789A
:10539000002B2FD0F7BD5F4F3B78012B1DD09A1EFD
:1053A000012A03D85C4A1278002A37D1584A0124CE
:1053B00012785A4E002A03D03278002A30D00024C6
:1053C0003378574D002B00D08CE0002C00D089E0C2
:1053D0002B78002B65D12C70DCE7524A1278002A1A
:1053E000E4D0514A1278002AE0D100224D4B1A70C5
:1053F000494B1A70012005F0B9FE01224B4B1A707F
:10540000019B1B785BB2002BC4D0494BDA7F502A3A
:10541000C0D8002A6DD101F0CDFEBBE7454AE1E7D7
:10542000012B27D019D9023B012BC8D8424B197840
:10543000394B00292DD041490978012929D11A7009
:105440003F4D2B78002BBAD0FEF7CFFD441E6342B0
:105450005C41002364002B70B2E7354B5B7C002B72
:10546000ADD0374B1B78002BA9D00022344B02243F
:105470001A70A5E7334908782A49002801D00A7034
:10548000EFE70A78002AECD10B70274B64321A70D0
:10549000E7E71A78002AD3D101321A70254B63321C
:1054A000CDE7234B5B7E002B95D03B78023B012B55
:1054B00091D8FEF79AFD01288DD11D4B5B7E002B04
:1054C00000D167E7A0238022DB0552009A621E4BC1
:1054D000EC3A1A800023009A1370012232701B4AA2
:1054E000137057E700232B70012C83D0022CE4D0DB
:1054F00050E719235343164A13800022154B1A70A4
:1055000048E7C0461F180020A217002033180020CB
:1055100038180020A61A00205E1800205D18002010
:10552000201800205F1800202418002029180020CF
:10553000B81A002025180020431800204218002027
:10554000401800204118002068180020651800202D
:10555000561800207E000020194B10B51B78002B38
:105560000FD0184A184B12781B7852B2002A1CD15F
:10557000164AD27E002A05D1032B02D0032004F064
:1055800085FF10BD124A1278002AF5D1114908880A
:105590001149088011490A7011490A700121114A04
:1055A000117001210A4A1170E6E7094A1278002AAF
:1055B000E2D10D4908880D4908800D490A70F0E7CD
:1055C00038180020A2170020EA170020B81A00207F
:1055D00032180020643801087A1800208200002068
:1055E000781800206018002058380108561800204C
:1055F0007E000020034B10B51B78002B01D1FFF774
:10560000ABFF10BD64030020F7B5E122354B364CEB
:10561000364E01905201A5791A803378002B01D0C3
:105620000AF0B4FD6A4255410022314B5A55A0237D
:105630000132DB05FF329A612E4BFF3A1A702E4B76
:105640001B789B0701D5FDF751FE00232B4F2C4DF6
:10565000FB56002B28D1E37E002B2CD123006E3388
:105660001B78703421781B011943B0231B021943A6
:105670004820FDF729FF234B1B683333187805F0CA
:1056800077FE019804F002FF019B022B02D03378D1
:10569000002B23D01C4B1B78012B02D0002009F0DB
:1056A00015FB01232B70F7BD01F048FD0023FB56CD
:1056B000002BD3D1CFE7154B1A88154B1A80002247
:1056C000144B1A70237F934202D1134B01321A708C
:1056D0000022124B1A7001232B70BFE70122104BDE
:1056E0001A70DEE76C180020B81A0020B7210020DD
:1056F0005B180020651800209F1A0020A2170020C8
:1057000060180020AC1A0020211C0020623801081B
:105710007A1800208200002031180020781800201C
:10572000291800201D4B10B51878002809D11C4BF2
:105730001B78002B04D004F0A9FE0122194B1A702B
:1057400010BD194B1A78194B1B78134359424B4122
:105750001749DBB20978002905D0012A03D10020BE
:10576000144B18700B0014490978002912D0134902
:10577000097801290ED1023A012A0BD80022104BD8
:105780001A70104B04201B78002B00D00238FFF752
:105790003BFFD5E7002BF4D1D2E7C04638180020F4
:1057A000EA17002029180020A61A0020A2170020BE
:1057B000411800205F1800204318002042180020E4
:1057C0005E1800207C1A002070B51C00838B160028
:1057D0005943026805008818190004F01BFCA04218
:1057E00006D8B04203D2A98B601A04F013FC70BD36
:1057F0003000FCE7030010B530331C78034AE400A6
:1058000013195B68A258FFF7DFFF10BD743701085A
:1058100010B505F00FFF0122044B1A70044B1B78E2
:10582000002B01D0034B1A7010BDC0463418002065
:105830007C1A00204E180020154B10B51B78002B49
:1058400003D1144B1B78002B0AD001F001FE022279
:10585000114B1A700022114B1A70114B01321A7041
:105860001048114A03781149002B03D113780C78A2
:1058700023430BD000231370022203700B70064BDE
:105880001A700B4B013A1A70054B1A7010BDC046C6
:10589000BA170020BB170020E9170020BC00002029
:1058A000291800206A13002064180020D01B002053
:1058B00060180020F0B5854B04001B780D00160021
:1058C00085B0002B00D180E0002978D0102800D0CE
:1058D0008BE0FDF70BFD10247D4B02931B78052B0D
:1058E00002D1002004F0D2FD7A4B1A887A4B1A803C
:1058F0007A4B00937A4B1978002903D01E224A4331
:10590000784B1A70002D00D071E0774F3B78002B58
:1059100002D006F001FC3D70744F3B78002B03D0A1
:1059200006F018FC00233B70714F3B78002B03D02E
:1059300006F0C6FB00233B706E4F3B78002B13D064
:105940006D4B1A68009B907FD979012306F036FED3
:1059500000233B7003F014FE002805D1674B1A7832
:10596000002A01D101321A70654B1A7800239A423D
:1059700007D0644A12789A4203D1634B1B785A428B
:105980005341564A61490092D27C09781A43002952
:1059900066D0002A03D0029A1278012A68D1092C15
:1059A00002D90F2C00D0C9E0594B1B78002B00D135
:1059B0007EE1002D19D0002E17D1022064E0FDF702
:1059C00095FC102C87D0132486E70D2884D1FDF791
:1059D00017FC071E00D07FE7404B9B7F002B00D1B8
:1059E0007AE7FDF783FC4B4B1F7005B0F0BD08F064
:1059F0007BF9454F102C03D1474B1B78DB0726D58D
:105A00003B78012B04D1132804D01538012801D983
:105A1000FDF76CFC0D2C1AD1002E18D03F480378EE
:105A2000002B09D0142200210CF096FB00223C4BE5
:105A30001A703C4B01321A70FFF7FEFE3A4B1B788E
:105A4000002B01D0FFF71CFA0022384B1A603B787C
:105A5000012B00D088E7364A364B12781A8083E74C
:105A6000002A9CD0029A1278012A98D0102C68D073
:105A70000D2C0CD1002DB8D0002B00D149E2012013
:105A8000204B1870274B187003F0F6FFADE70F2C72
:105A90000ED1002DA9D0002E00D085E7022003F002
:105AA000EBFF0422244B1A7001221E4B1A709CE754
:105AB0002300113B012B00D8FAE00A2C00D025E28C
:105AC000002E00D0F4E0002DE8D08EE79E1A0020D2
:105AD000EA1700205438010884000020B81A00207A
:105AE000E81A0020631800207C1700207B17002094
:105AF000441800207A170020B01A00204D1800200A
:105B0000F3170020F2170020211C0020991A002012
:105B100058180020E91700209F1A0020A517002020
:105B2000A4170020291800207C1A00209C170020B0
:105B300074380108521800204F180020102C00D093
:105B4000B6E0BF4A1378002B04D03300002D01D1FA
:105B500001231570BB4A1178002908D0102C01D000
:105B60000D2C04D1002101201170B7490870B749EC
:105B70000391B7490191002B0FD1029B1B78012B98
:105B800000D00AE1B34B1B78002B00D0CAE0102CE8
:105B900000D08FE0280001F031FD039B1878002829
:105BA00004D003F069FF0023039A1370AA4CAB4A98
:105BB00023780292002B0AD0A94AAA4B12781A80A5
:105BC00002F08EFC0123029A137000232370A64C6E
:105BD0002378002B09D0002E00D010E106F0BAFA8D
:105BE000002301222370984B1A70A04B1A78002AC8
:105BF00006D000221A70964200D004E106F060FA46
:105C00009B4B1A78002A06D000221A70964200D0C8
:105C1000FDE006F081FA974F974C3B78002B18D0A7
:105C2000002E00D0F7E0002D00D0F4E0934B009957
:105C30001A68C9793B78907F06F0C0FC03F0A0FC9D
:105C4000002804D12378002B01D1013323700023D5
:105C50003B7021788A4D002900D12FE1894E33789D
:105C6000002B00D1E9E0002005F008F801202178A0
:105C700005F004F8019B1B78FF2B02D10023019A49
:105C8000137001232B7000232370337005F0BEF9CD
:105C9000012005F06BFA00227B4B2A701A705A70B3
:105CA0007A4B1B78934200D10CE1FFF7E9F809E148
:105CB000774A47E7FE27112C06D0200001F0B8FBF9
:105CC0000700FF2800D168E7002D0CD1A023802217
:105CD000DB0552009A626F4B28001D70FDF7B2FF82
:105CE000FDF778FE59E7002E00D056E7009B6A3397
:105CF0001B78002B07D0A0238022DB0552009A617D
:105D0000644BFF3A1A70FDF765FE009B6A33187802
:105D1000FE2F03D16049FEF781F83EE73900FEF718
:105D200045FA3AE7002E00D0E9E0002D00D134E733
:105D3000A02280210027D20549009162554A1770A0
:105D400002229343012B01D105F074FC5022414BF8
:105D500005201F70514B1A80FEF7C4FF012005F08B
:105D600005FA4F4B1B78012B01D0019B1F70009B44
:105D70003433187800280BD104F088FB0123304A13
:105D8000102C03D0424A002E00D006E7137004E71F
:105D90000A224243434B1A70F0E723001278113B6A
:105DA000DBB2002A0BD0012B0BD83D4A3E4B1278B8
:105DB00092009B582900320020009847EDE6012B05
:105DC00006D9374B1B78FF2B02D0374A9B00F0E7F0
:105DD00003F0D6FB002809D1314B1B78042B05D0EA
:105DE000320029002000FFF7BDF9D6E6002E00D0D2
:105DF000D3E6002D00D1D0E60223039AC6E70122A4
:105E00002A4B1A70ECE60122294B1A70F8E601229F
:105E1000284B1A70FFE607F067FF002800D005E75F
:105E20003A78254B511E8A411A70019B1B78FF2B33
:105E300000D00CE7019B187009E7009BD87917E7A1
:105E4000501800206A13002060180020E917002075
:105E5000BC000020541800204618002045180020DF
:105E600074380108521800204918002048180020F2
:105E70004B1800204A1800204D180020B01A0020AE
:105E80004E1800204C1800205B1800207C1A0020BF
:105E90005118002065180020D60600003C1800208C
:105EA000211C002062180020680000207B170020C1
:105EB000441800207C1700207A1700202B78002B34
:105EC00000D0E3E6029B1B78002B08D00023029A47
:105ED0001370124A124B12781A8002F0D7FD114C3F
:105EE0002378002B03D005F0F1FA00232370019BE7
:105EF000187808F0EBFEFF23019A1370D4E5032B0A
:105F000000D04AE6002D00D047E611E7002D00D171
:105F10006BE5002E00D068E5C0E5C0467438010886
:105F20005218002047180020F7B5012009F070FE34
:105F3000002802D0012009F02DFFB44D2B78012B51
:105F400000D087E0B24E3378002B37D1B14B1B78AD
:105F5000002B33D1B04B1A78002A03D1AD4A127806
:105F6000002A77D000221A70AC4B1A88AC4B002A5A
:105F700002D19A7F3D2A03D1FF33987CFDF746F981
:105F8000C8220024A74B920034701A80A64B1B78BD
:105F9000A34208D0A54E3378012B00D027E102336D
:105FA0003370FEF7F5FDFFF733FC082003F064FDC6
:105FB000042005F065FA08F07BFE4BE09C4F9D4CF9
:105FC0003B78012B0ED9964B2268997F002927D167
:105FD000002A01D0FA2A05D18023974A9B015169F2
:105FE0004B40536123683A7801332360032A26D15A
:105FF0008B4A927F002A20D0904A934226D90023D0
:106000002360FDF7E7FC0123864C1A0020881E213F
:1060100080B2FDF737FE238864339BB2238015E0FE
:10602000002A04D1FF33987CFDF7F0F8DAE78449C1
:106030008A42D7D1FF33587CF6E7824ADDE78249AE
:106040008B4203D900232360012ADAD02B78012B5D
:1060500000D17FE77D4B1B78002B00D0C6E02B786A
:10606000012B03D07A4A9B009B589847794E33788E
:10607000002B04D0784B1B78002B00D0B6E003F047
:106080007FFA00280ED1754B1B785BB2002B09D02C
:10609000734B1B78002B05D0724B1B78002B01D162
:1060A00001F016F803F06CFA5D4C00282AD1E37E6B
:1060B000002B27D06C4B01931B78002B22D0674B11
:1060C0001B785BB2002B1DD1664B1B78002B19D1BE
:1060D0002B78052B16D03378002B13D1FFF718F946
:1060E000624F3B78002B05D0614B1878002801D116
:1060F00008F0ECFD00235F4A3B7013705E4A13709A
:10610000019A13705D4B01931B78002B0BD05C4BF5
:106110001B78002B07D004F09BF8071E03D10AF070
:1061200071FC019B1F70637D002B09D0554B564AB3
:106130001B88002B00D0BFE01388002B00D1BFE0EC
:10614000524F3B78002B1ED0464B1B78002B14D1AE
:106150004F4B1B78002B10D1637F002B0DD04D4B84
:106160001B78002B09D13D4B414A1B781278134311
:1061700003D13378002B00D103E1474B1A88474BFA
:106180001A8000233B70464B01931B78002B2DD0C7
:106190002B78052B2AD1434F434D3B78002B00D160
:1061A000F3E0FDF741FD637D002B05D02300FE33B6
:1061B00099895889FDF748FBE37E002B0CD0274BCB
:1061C0001B785BB2002B07D1324B1C78002C03D11B
:1061D000FFF79EF8354B1C7004F046F8344B1B88D3
:1061E0002B8000233B700023019A1370F7BD022B14
:1061F00000D0D6E6220021001020FFF75BFB012231
:10620000184B34701C702B4B1A70CAE6EA1700202A
:106210006E180020771800207218002062020020FB
:10622000B81A002080000020941A002018180020BE
:106230009C1A0020141800200008005010210100B2
:10624000983A000098340100E02801005A18002014
:106250002C290108B7210020B6210020A217002018
:106260007E0000202F18002082000020311800201E
:10627000211C0020A0170020321800201E1800202A
:10628000B32100203C1800203A1800207C18002080
:1062900030180020581800205438010884000020CD
:1062A0007D18002064030020EC17002079170020DF
:1062B000523801085118002000214B4B11801970F1
:1062C0003378002B00D03BE72A78FD33911E19422A
:1062D00000D135E7454B1B785BB2002B00D02FE790
:1062E000414B1978424B1878002832D04148002998
:1062F0001DD0414909880180012A00D020E73F4A8A
:106300001278002A00D01BE71B78002B00D017E77B
:106310003B4F3B78002B10D0002004F0B7F801224F
:10632000384B1A70384B1A7000233B7008E701880D
:1063300088B20029E0D11870DEE7FFF769FA230080
:10634000343319780029E7D00A224A432F4B1A70B8
:10635000E5E7002900D1F3E601211970052A01D1F2
:1063600004F094F82B78012B00D1E9E6284B1B7838
:10637000002B00D0E4E605F0A9F80122224B1A70A8
:10638000DEE6052004F082F8FBE6E37E214E002BDA
:106390000BD0164B1B785BB2002B06D11E4B1B7823
:1063A000002B02D13378002B16D01C4B627F1B7858
:1063B000002B0FD0C823534300242B8001233470BB
:1063C0003B70FDF741FBFDF79BFB21002000FDF733
:1063D000D3F908E70A23EEE7FEF79AFF104B1B8874
:1063E0002B8001233370FEE63F180020A217002007
:1063F0003E180020221800204E3801082F180020D7
:10640000341800206018002029180020621800208D
:106410007718002079170020581800209E1A0020B5
:1064200052380108F0B50024BA4B85B01C70BA4B45
:10643000200002931B88029A01339BB2138009F05B
:10644000E7FBA04202D0200009F0A4FCB34B1B786C
:10645000002B00D05BE1B24B01931B78052B03D1DD
:10646000B04B1B78002B17D103F08AF801250028C8
:1064700000D13DE1019B1B78012B0DD1AA4B1B786C
:10648000002B09D0029B1A88A84B5343A84A9BB201
:10649000934201D806F024FCA64CA74D23782E7811
:1064A000002B00D1A4E20023237008F001FC002E91
:1064B00001D008F0ADFA00200AF0AAFE9F4E337812
:1064C000002B04D09E4B1B78002B00D01FE19D4A6F
:1064D0001388002B01D0013B13809B4A1388002BAB
:1064E00001D0013B1380019B1F78012F0CD1974BEA
:1064F0001878002808D00138C0B21870002803D1DD
:1065000003F0C4FF2F7027703378002B0DD0904A12
:106510001388002B09D0013B9BB21380002B04D1C0
:106520000AF0CAFA032008F0D1FB03F0BFF9894C46
:106530002378042B00D1E2E08022874B874918782A
:10654000D200874B002800D1CBE10869104200D06F
:106550004FE1844A844812780478224300D048E10D
:1065600019780131C9B21970022900D858E17F4960
:106570001A700A7001217E4B017019701020FFF70C
:1065800099F94DE100210220FCF79EFF0220FCF763
:1065900025FF08230404240E06001C4226D0FDF724
:1065A00016FD00F045FF0390FF281FD0019B1B78CC
:1065B000012B1BD06F4B1B78002B17D06E4F380070
:1065C000FCF73AFB0200132804D138006B490BF0AA
:1065D000B1FD1222039BBB540023BF18684A7B7095
:1065E0001278684B1A700122524B1A70630701D55A
:1065F000654B1D702C4205D0644B1D70FDF7EEFC01
:10660000634B1870A30702D50022604B1A70F7B2D3
:10661000730601D55F4B1D70360602D500225D4B17
:106620001A70FB062BD50A225B4B1D70464B1A8055
:106630005A4B5A7D002A22D0019A1278052A09D194
:10664000384A1278002A05D15549088855490880EA
:1066500055490A70DB7E002B11D0544A544B1078F8
:106660001988544B002802D11888884207D2198013
:1066700000231370504A137001222F4B1A70BB066F
:1066800004D50022444B1A702F4B1A807B0709D582
:106690004A4B012105201D70FDF76EF8E122484BA1
:1066A00052011A8008231F4205D00021434B0520C8
:1066B0001970FDF761F8E4061AD5264B1C78042CF6
:1066C00016D1404B1B78012B12D13F4B1B78002B6E
:1066D0000ED13E4B5F201E78013C721C1A70FCF7F5
:1066E0007DFE3B4B76009853002CF2D10AF066FBFE
:1066F0000C20FCF773FE284200D043E7BAE6314D88
:106700002B78012B66D02B78002B00D114E705B035
:10671000F0BDC04626180020361800205A18002068
:10672000EA170020640300207F1A0020EFEEFFFF2D
:10673000111100002918002060180020B721002046
:10674000B62100203C1800203A18002062180020D2
:10675000AE210020211C0020941A002000040050CB
:106760002E18002077180020181800201D1800206F
:106770002F1800207E1A0020A5170020A617002041
:1067800071380108A4170020401800204318002089
:1067900042180020411800203F180020B81A00209D
:1067A00050380108EC1700207D18002082000020DE
:1067B000603801087A180020781800203818002066
:1067C0006C1800202E220020282200202A180020E9
:1067D000E0210020884B1B78012B98D10AF094FA15
:1067E000002801D108F064FA2378042B00D18AE74D
:1067F000A2E60A69520503D4804A1278002A2CD0F6
:106800007F480278012A28D11A780132D2B21A7050
:10681000022A03D8794B1B78002B01D00223037086
:10682000FEF76CF80400132802D00022754B1A7092
:10683000754E764D33789C4200D18AE0132B08D0F8
:10684000132C06D0724B00211A78724B1878FFF780
:1068500031F8002334702B8059E780220869D20078
:10686000104212D1654C207800280ED1644805787A
:10687000022D0AD11A780132D2B21A70022A02D835
:106880002378002BCCD00323C9E70969114203D137
:106890005A4A1278002A21D0594C2278032A1DD155
:1068A0001A780132D2B21A70022A03D8534B1B78DD
:1068B000002BB5D0002210201100FEF7FBFF0022B4
:1068C000554B1A70534B1B78132B02D0534B01328C
:1068D0001A7000232370FEF75BF9A1E700221A70FB
:1068E0009EE74D4C0969207800281ED0114203D143
:1068F000424A1278002AF1D01A780132D2B21A70C4
:10690000022A03D83D4B1B78002B89D0002210208F
:106910001100FEF7CFFF002323703E4B1B78132B93
:10692000D9D001223D4B1A70D5E71142D6D1334A56
:106930001178CAB20029D1D119780131C9B21970C0
:10694000022900D86CE72F491A700A7001212170C2
:1069500014E62888324B01301B8880B2288083429D
:1069600015D12C4D2A4E132C0AD12878132804D087
:1069700000213278FEF79EFF2C7000233370C6E6AC
:106980000022012120002C70FEF794FFF5E7254B33
:106990001E88B04200D2BAE6132C00D1B7E6B0424E
:1069A0000AD1102C00D1B2E60121194B0A002000B7
:1069B0001970FEF77FFFAAE623000B3BDBB2012B29
:1069C0000ED80127124B1F70174B1988FCF726F8B9
:1069D00089B2002904D13A0039002000FEF76AFF8D
:1069E0002A88124B9A4200D091E601362E808EE61C
:1069F000002E00D162E55CE52822002077180020F7
:106A0000181800201D180020090000206C13002019
:106A100030180020080000202F18002051180020F6
:106A20006A3801086E3801086C380108FFFF000061
:106A30000022F0B58A4B85B01A708A4A1378002B71
:106A400007D0013BDBB21370002B02D10122864B31
:106A50001A70864A1378002B1AD0013BDBB21370F0
:106A6000002B15D1824B1B689B7FC72B0ED8814B07
:106A70001B78013B012B09D801F0C8F87E4B187830
:106A8000022801D102F0F8FF05F046FBFEF7D4FE24
:106A90007A4B1978002914D0794A1278052A01D046
:106AA000002A0ED10139C9B21970002909D17548DF
:106AB0000378002B05D014220BF04EFB01226A4B09
:106AC0001A70714B01931B88002B75D100236F4AFC
:106AD00002931378002B00D07CE06D4E3388002B9E
:106AE00000D080E078236B4F6B4C397822884B4381
:106AF0006A4D9A4210D12B78002B0DD0FEF736F854
:106B000000210620FCF738FE0A22654B5B7F5343C9
:106B1000644A138000232B70634B03931B78012B73
:106B200000D198E003F094FB002800D093E05F4B85
:106B30001B78042B00D18EE02088002800D179E05A
:106B4000013880B22080002800D073E00122554B2C
:106B500030801A802A70FCF759FBFEF7B1F82B78C9
:106B6000002B0BD00322524B062019780131114023
:106B700019704B425941C9B2FCF7FEFD4D4B1C78D0
:106B8000002C00D1AAE04C4C4C4D2100280003F011
:106B900073F9FA2322885B009A4204D8484BDA88BA
:106BA0002B889A421DD2BFF34F8F464B464ADA607C
:106BB000BFF34F8FC046FDE7019A013B9BB21380A4
:106BC000002B00D082E7394B1B78013B5A425341DE
:106BD000DBB27CE7013B13703C4B1B78002B00D1F0
:106BE0007BE705B0F0BD3A4B1B78002B00D079E76E
:106BF000384B1B78002B00D074E72C4B1B78012BF3
:106C00000ED03388013B9BB23380002B00D069E764
:106C1000234B9B7F3C2B00D964E7FCF755FB61E7D6
:106C200007F062F8132800D15CE707F05DF816283A
:106C3000E7D157E723885A1E132A00D98FE73A78FD
:106C4000002A00D18BE700209B0701D1224B987CC2
:106C5000FCF7DCFA83E778223B78534323807EE716
:106C6000761800204F1800202918002064180020F2
:106C7000B01A0020D01B0020E9170020A417002024
:106C8000EC1B0020A517002052180020B621002080
:106C900062020020880000205E0200209E1A002070
:106CA000B81A0020EC170020EA170020211C002051
:106CB000781700205A18002002180020041800201D
:106CC0000618002000ED00E00400FA05B7210020BE
:106CD0001F1C002058180020B71B00205A4D039A93
:106CE0002B88127801339BB22B80012A12D0DB074C
:106CF00010D4564E56493078431C3370554B4000E3
:106D0000C01803F0B9F83378032B00D93470012090
:106D100003F062FC2B889B070AD14F4B1B78002B9A
:106D200003D14E4B1B78002B02D001224C4B1A7022
:106D30004C4B1B78002B5CD14B4B1B785BB2002B70
:106D400057D102F01DFC002853D1484B1B78002B73
:106D500003D0474B1B78002B4BD0464B18780428A8
:106D600047D0454B454A1B78002B12D044490B783D
:106D7000002B0ED0434D2D78002D0AD1012808D0CC
:106D8000013BDBB20B70002B03D135490133D374C7
:106D90000B70029B002B2CD0002301990B80937F5A
:106DA000002B01D1FCF790FA374D2B78002B03D143
:106DB000344B1B78002B02D0022002F05DFE00F065
:106DC00047FB0023314A2B701370294A1370304A55
:106DD00013700122224B1A702E4B1A702E4B1B7807
:106DE000002B2AD102F0CCFB002802D1200007F0B2
:106DF0006DFF2A4B1B78002B18D1294B1A78002ADB
:106E000014D018780138C0B2187000280ED104F0E0
:106E100037FB214B1B78002B08D003F019FA002810
:106E200004D109F049FE032007F050FF03F07EFC77
:106E300002F0FEFD06F0B2F8D3E603F009FA0028EE
:106E4000D0D10324D2E7C046F01700205918002003
:106E500002180020FA170020F51700207D1A0020E4
:106E60006018002058180020A2170020B32100202D
:106E70001F1C0020211C0020E81A0020B81A002046
:106E800063180020BA170020D01B00206A130020CE
:106E90001E1C002029180020B72100202F180020D8
:106EA00066180020F0B53D4B3D4DDA7F85B0531E8E
:106EB000D9B202292CD8EB18991CC97F0191591D10
:106EC0000833CE7FDC7F374B02931B780393019B03
:106ED000002B0CD0344F3B780093002B1ED0012B9D
:106EE0004BD003233B70314B029A1B681370002177
:106EF0002F4B029A595610786B1C40180122DB7FE9
:106F0000C0B203F06FFDFF2800D10020C4B213E02F
:106F100001260123764234000193D4E7234B0399E1
:106F20001960731C29D00099B0B203F017FD002836
:106F300023D0009BF4B23B701A4B1C70039BA342FE
:106F40000CD0A87902212B181C712C5403F096FE4A
:106F5000012004F00BF90122164B1A700922164B7E
:106F60001A80019B002B06D00F4A13780133DBB245
:106F7000032B10D8137005B0F0BD6B1CDA7F631CB7
:106F8000AFD00021A0B203F0E9FC0028A9D0012372
:106F9000E4B23B70D0E70023ECE7C046B91A00200A
:106FA000B81A002033180020941700208017002002
:106FB000A21700202918002056180020002170B5C3
:106FC000104B114C1A68114B25685956002A15D0E0
:106FD0000F4B28001B68FEF7F7FB2860206803F0C2
:106FE0003FFE206803F01CFD012004F0BFF80922D9
:106FF000084B1A80084B083A1A7070BD2800FEF73B
:10700000F9FBEAE79C170020AC1A0020A217002029
:1070100098170020561800202918002070B5040089
:107020000D00002807D01B4A1B4B117F197000234D
:1070300013771A4A137003F0E9FF0020184B194A1E
:1070400019688B7F1370184A1070184A1570184D04
:10705000C72B15D8844202D0164A2B601360FFF765
:1070600021FF2A68144B1A60144B1A88144B1A809B
:107070000023144A1370144A1370144A137070BD1D
:10708000002C03D00B680B4A2B601360FFF796FFB0
:10709000E7E7C046B81A00208C170020A11700208F
:1070A000AC1A00203318002094170020A2170020EB
:1070B0008817002090170020841700205A380108F4
:1070C000561800207E00002032180020A017002053
:1070D00010B5134B134A1B7812783833DBB2032AEE
:1070E00015D1062B03D9104B1B78002B14D10F4B55
:1070F00004201B78002B00D00238FEF785FA00230D
:107100000B4A13700B4A13700B4A137010BD062BF9
:1071100002D8FFF753FFF2E7FFF7C4FEEFE7C046E0
:1071200033180020EA170020A61A00207C1A00203D
:10713000A0170020321800207E000020144BDB7FB7
:10714000502B20D913490A78002A0AD1124A503B01
:107150001288534305225343104A9BB213800123E4
:107160000B7000220E4B1A700E4A0F4B11681960FB
:107170000E4B19688B7FC72B00D90B681360012257
:107180000B4B1A7070470022044B1A80E9E7C04687
:10719000B81A0020A0170020563801085618002001
:1071A0007E0000208817002084170020AC1A0020E1
:1071B000A1170020F8B5224B224C1A78002A02D0E1
:1071C000227700221A7000221F4B1A701F4B1F6873
:1071D0001F4B3D001B78934201D01E4B1D681E4B78
:1071E0001B78C72B1AD8A079EBB222180221137191
:1071F000235403F043FDBD4204D004F08DFF01226F
:10720000164B1A7000232A34237005F053FA01201C
:1072100003F0ACFF0122124B1A70F8BD114E30681A
:10722000056003F01DFD306803F0FAFBBD42E9D0B4
:1072300032680123A179907F05F0C0F9E2E7C046EA
:107240008C170020B81A0020A217002090170020E9
:10725000A117002088170020331800206018002094
:1072600029180020AC1A0020074B1B78012B0AD0EC
:10727000064B1B78012B06D001220549CB7C5340DD
:10728000CB74044B1A707047211C0020EA170020B1
:10729000B81A00204918002000220E4B1A60012362
:1072A0000D4AD1794B40117FD371002901D0591C6F
:1072B0001177D17E002901D00133D3760123074A0B
:1072C0001370074A1370074A13700022064B1A7096
:1072D0007047C0469C170020B81A002049180020AB
:1072E0004E18002082000020BC00002010B50F4C7A
:1072F000A37E002B0ED00E4BE2791B68997FA3185A
:10730000C72908D89B78A35401220A4B1A700A4B4C
:1073100092181A7010BD1879002301211A0003F089
:1073200061FBFF28F6D0E379E054EDE7B81A0020BE
:10733000B01A00204B1800204D18002037B5224C01
:10734000236831331B78042B06D1204B1C22FA21F1
:107350001B781F48FCF796FC236831331B78023BEF
:10736000012B2CD8194B1B4C1B781B4D002B09D023
:10737000A0238022DB0552009A6101233C202B7060
:10738000FDF7B0FC23006A331878FCF7C5FC210038
:107390002300220068310988643362321B88128816
:1073A0006634019121880D4800910021FCF708FD09
:1073B000A0238022DB0552009A6200232B7001205B
:1073C000FCF740FC37BDC046A81A0020221B002055
:1073D000AB090000B81A002065180020061B002029
:1073E00030B502780300013AD2B20020FD2A0CD851
:1073F00001240E4D59188B4206D01A78501EC0B287
:10740000FD2803D900221A70012030BD232A09D09B
:107410002A3AD2B21A2A07D82800D04002002040C7
:107420002242F2D00133E6E70020EEE7C1FF8007F9
:10743000092802D83030C0B2704703000A3BFF2051
:10744000052BF9D8014AD05CF6E7C0464829010867
:107450000F2210B5002104480AF07EFE0022034BE3
:107460001A70034B1A7010BDBC170020BB17002008
:10747000BA170020F8B50A4F06003C78002C0BD153
:10748000084D0E222D2128000AF066FEAC73631C05
:107490003B70044B1E5501E00D2CF8D9F8BDC046D9
:1074A000BB170020BC17002073B5264A1378012BA8
:1074B0000CD0254B1B6831331978042940D815238B
:1074C000CB40DB073CD50023137073BD1F4D002359
:1074D00013701F4B1F4C1B88181CC72B00D8C820CB
:1074E00023006A331B781C4E80B2002B06D0A023E9
:1074F0008022DB0552009A6101233370FDF7F2FB15
:1075000023006A331878FCF707FC210023002200CF
:1075100068310988643362321B88128866340191AD
:107520002188280000910121FCF74AFCA023802239
:107530000020DB0552009A623070FCF783FBC4E741
:10754000064DC4E7A3170020A81A0020CB1700207F
:10755000181B0020B81A002065180020F41A00201B
:1075600010B51C4B1B78002B07D0002924D1002814
:1075700022D00222184B1A701EE0002918D1174B96
:107580001B78002819D1164A1278002A01D1002B45
:1075900001D0032B10D10123124A11784B401370F4
:1075A00003D0114A114B12781A70114B0122E2E7F5
:1075B000002801D0FFF758FE10BD074A032B02D068
:1075C00001231370F8E70B4909780029F8D01370EC
:1075D000094BEBE7D01B0020E9170020211C0020FD
:1075E000B72100206A1300207038010864180020B9
:1075F00060180020B321002051180020002370B52E
:10760000484D2B70984203D0474B1B78002B23D05A
:10761000464B1B78012B13D1454D2B78002B10D0F6
:10762000002002F033FF0024424B20001C702C701D
:1076300003F026FF404B1B78012B01D03F4B1C7001
:1076400070BDFEF7E5F83E4B19780029E8D00A2214
:107650004A433C4B1A70E6E701F092FF364C002893
:1076600007D001F09DFF384B1B78002B30D0374BF3
:107670002CE0374B1B785BB2002B02D0FFF79AFD52
:10768000F1E7344B1B78002B05D008F0E7FF03220D
:107690002A4B1A70E7E72378032B16D0234A127877
:1076A000012A05D1274A1278002A01D12A70C7E79A
:1076B000012B02D00022214B1A702749274B097851
:1076C0001A78002915D1002A1AD1254B01221A70E7
:1076D0000022244B1A702378012B04D0174B197801
:1076E000032900D01A7001221F4B1A701F4B1A7009
:1076F000A6E7002A04D11E4A1278002A0ED01A707A
:107700001B781C490E2B01D80022CA54184A1A486B
:1077100013700AF029FD0122184B1A70FFF798FE2A
:10772000D3E7C046D01B002077180020EA170020BE
:10773000341800203E180020211C0020BC0000202E
:10774000EC1A0020621800202F180020501800208A
:10775000A2170020B3210020BA170020BB17002079
:10776000471800202E18002060180020291800203B
:10777000B9170020BC170020CB170020A31700204A
:10778000F0B5BD4BBD4CBE4A1B7885B0E6790D0007
:107790000392012B03D10223039A13701CE00127EB
:1077A000039B1F70122800D962E1FBF7A7F81300B2
:1077B0001700880092009A00AA00060109010C0136
:1077C0001601610129013501610161016101610158
:1077D00055013B01FDF798FB05B0F0BDA94B1968B9
:1077E0008B7F3833DBB2062B3ED90022A64B1A70B2
:1077F000A64B01321A70A37E002BCCD0A44B1B7871
:10780000002BC8D1A34B1B785BB2002B0BD0A24B33
:107810001B78032BE0D1A14B1B78002BDCD0A04BB5
:107820001B88002BD8D0A35DC72BD5D84823734322
:10783000E3181A00A43212789233383AD2B2A25521
:107840001A7003F0E3FB974C206803F009FA2068F4
:1078500003F0E6F8012003F089FC0123924A13703B
:10786000924A1370924A98E70A0030321378062B36
:1078700007D109698F480D68854202D88E4B0B608D
:10788000AAE70133DBB21370042B14D18B4B1B78A6
:10789000002B01D10533137013780122383BDBB282
:1078A000A355A419A370814B1A70854B92181A70B6
:1078B000844B002223E0062BEED90023EBE7804B1C
:1078C0001F70FFF7E9FC002D00D185E7039B1F70B7
:1078D00082E77B4B1F70FFF709FD002D00D05AE7B0
:1078E0007AE70020684B1870227F774B20771A7058
:1078F0000122664B1A7001F0BFFD724B02221A7012
:107900006AE7002900D067E701F03AFE002800D0BE
:1079100062E75C4B1968887FC72823D90B69E17936
:107920001B684A42514148224A43684EA218506F90
:10793000674A9D196749684C954202D88519954256
:1079400003D900230B60236025E70A6820605542B5
:107950006A41524213400B60984200D33CE70860F2
:10796000236039E75D4B1A5C002A01D01D5433E7D0
:107970000E000A000F002E362F32337814785B0089
:10798000A4002D3723433C782343DBB2062B01D8D8
:107990000133DDB201242B0023403B706B082340F0
:1079A000AD083370157023002200009404F0A4FD8C
:1079B000434B1C704A4B1C700EE7FDF7D5F90BE7E3
:1079C000FDF7FEF908E701212E4B1B682A331A78D0
:1079D0004A401A70344B1970FEE6270000223B37EC
:1079E0001100387802F0BAFF002800D175E73B7823
:1079F000A21913710122A3552C4B1A70304B7DE74D
:107A0000627C131C082A00D9082301336374012205
:107A10002B4B1A701C4B4CE7637C002BF6D0013BC0
:107A2000DBB2F3E7174C23680733D87F02F0BAFACA
:107A3000C0B2162806D825680130C0B202F0ACFAF0
:107A40000735E87723689B7F3833DBB2062BDED817
:107A50000122154B1A70DAE70A4C23680733D87FE6
:107A600002F0A0FAC0B20028ECD025680138E4E7A3
:107A7000064B1F70CEE7C046211C0020B81A00201C
:107A8000E9170020B01A00206A13002060180020B7
:107A900058180020A2170020EA17002032180020F2
:107AA00056180020AC1A00204A1800204B1800205D
:107AB00029180020FFE0F50500E1F505A21A0020D5
:107AC0004D180020BC0000202C180020806967FFA2
:107AD00080AF2A239C170020981700207E180020D2
:107AE0004C18002070B52A4C0E00E3791100E55CBB
:107AF000284B1B78002E02D1002821D170BD002B0D
:107B0000FCD10028FAD00022234B9A56002A33D108
:107B10002B003833DBB2062B1CD8204D2868FDF72C
:107B200069FE040002F07AFB00280BDB2B682000C2
:107B30001C60FBF7CBFEFBF7F7FE0122184B03E0BE
:107B4000002B03D0174B02221A70D7E70122154BE6
:107B50001A70D8E768181300C0B202F043FFFF287C
:107B6000CCD08542CAD0E379E21810710122E054EA
:107B70000D4B1A700D4BE6E70020FFF74FFA01227C
:107B800000210B4B1A800B4B19700B4BDCE7C046E6
:107B9000B81A0020D01B0020A2170020B01A002025
:107BA0004A180020E91700204B1800204D1800202B
:107BB000561800207E00002051180020002270B5C9
:107BC0000E4D11000400EE7902F0C8FE002807D126
:107BD0000B4B1B78012B02D802220A4B1A7070BD86
:107BE00000220221074BE4B21A70AB191C71064B3C
:107BF000AC551970E87903F041F8F0E7B81A0020A5
:107C000064180020E91700204D18002070B5154BAE
:107C10001B689B7FC72B17D800220A251300124C24
:107C2000124E2178D0B281420FD8002B13D10329F4
:107C30000AD100220121013B22700D4A98B2117035
:107C4000FFF7BCFF04F068FA70BD6B43B05C013213
:107C50001B189BB2E6E7581E80B20329E9D0FFF754
:107C6000ADFFF1E7B01A0020D01B0020DA1B002086
:107C700064180020F0B5B54B85B001931B78050062
:107C80000C001600002B0AD0102808D00D2806D0B2
:107C9000002E21D1002C1FD00222AD4B1BE0AD4F96
:107CA0003B78002B1AD0002C00D14CE2002E00D0E3
:107CB00030E22800FFF7BCFBFF2800D15CE2FFF7B1
:107CC000D9FBA54AA54B12781A700122A44B1E704D
:107CD000A44B1A709E4B1A7005B0F0BD122DD7D868
:107CE0002800FAF70BFE1300130013001300130013
:107CF00013001300130013001300DD006901770166
:107D00007F01C301FC01010213001300002E16D0F5
:107D1000002CE1D0944B1B78002BDDD1934A1178D5
:107D2000002902D013708E4A137000210122904B5B
:107D30001970904B1A702800FFF722FDCCE7002C39
:107D400001D0834B8AE08A4B1A78002A00D098E051
:107D5000894B1B785BB2002B06D0052DBCD8874B16
:107D6000DD7704F0A7FCB7E7854E2800F37901938F
:107D700004F034FF784B794F1D783D70FFF746FFD4
:107D8000774B1C707F4C2268937FC72B02D8AD08BD
:107D90003D70A1E73833DBB2062B00D97CE71369CD
:107DA0001A68794B93429B415B42063302936F4BB7
:107DB00003931B78002B00D18EE7029A93424FD198
:107DC0002D093D7004F022FF039B1D7802F09AFDFF
:107DD000002102000A20029B5B1BDBB28B4245D1D3
:107DE00064206A4B50431D68694A5768A8420AD309
:107DF000B8423FD3674A1568A8423BD2EB195B08EB
:107E0000984200D23D00280002F0DAF823683033AF
:107E10001A7882420DD0C0B21870019B3838C0B2B7
:107E2000F054F318987004F077F90221019802F0E9
:107E300025FF23682800998B02F0ECF8B8420AD39A
:107E4000544B1B68984206D2DA195208904216D257
:107E50002368988B381A236818604F4B01223AE741
:107E600028000321FAF754FDC5B2AAE701314243C5
:107E7000C9B2B3E75D6B8542C5D90500C3E71800F9
:107E8000E9E701211C703B4B1970082D02D1FDF769
:107E90001BFA21E7092D00D04DE7FCF7ADFF1BE7EA
:107EA000002C21D0002E00D14BE7334B1B785BB266
:107EB000002B2ED002F0CCF9002804D1374B1B88C0
:107EC000092B00D808E72F4B354A1B68997F0123FF
:107ED0005354344A1370344A1370344A344B126882
:107EE0001A60FFF7F5F8F7E6002E00D0F4E63B78CD
:107EF000002B00D0F0E61D4B1A781E70002A00D02F
:107F000090E01D4B1B785BB2002B1AD0FFF752F9A3
:107F1000E2E6174A1370144B1B78002B00D0DBE607
:107F200012490878002802D00B700D490B7000230D
:107F3000012113700F4B0A000A201970FDF712F986
:107F4000CAE601221B4B1A70054BC4E6B72100207C
:107F5000E9170020BA1700207038010864180020C3
:107F6000BC00002051180020211C0020D01B002044
:107F70006A13002060180020A2170020B91A002000
:107F8000B81A0020B01A0020FFE0F5057437010888
:107F9000B4370108AC3701084A18002056180020F1
:107FA0007E1800204D1800204C1800208417002057
:107FB00088170020451800207C4B1B78002B02D02E
:107FC00000210C20B8E60122524231002000FFF7C8
:107FD00089FD81E6754B01221B78002BF5D000212D
:107FE0000B20A9E6002E28D1002C00D174E6012236
:107FF0006F4B1A70019B1B78002B1BD16D4A1278B6
:1080000052B2002A11D16C4A1378002B00D163E6DA
:108010000A21013BDBB21370684AD154684A694BAC
:1080200012781A700022684B55E6684A1370FFF701
:10803000C1F8F7E7FCF768FF4EE6002C00D14BE6ED
:108040005D4D634A2B7811780B4303D13B78002BAD
:1080500000D141E600245F48147021000F223C70DB
:108060000AF07AF8584B2C701C706AE65A4B1B7851
:10807000012B00D130E6504B1B78002B00D007E6D7
:10808000002E09D0494B1878002831D1002C00D19E
:1080900022E6FCF7BDFF54E6002C00D01CE6434B63
:1080A0001B78002B27D10022424B9A56404B002AC6
:1080B0002DD14A4A1268002A29D101250E3248489A
:1080C00044491D700AF058F8414B3D4A1C70127823
:1080D0003C4B3D701A703C4B1C70424BBEE631006D
:1080E0002000FFF73DFAF7E52000FFF787FAF3E5F8
:1080F000002C00D0F0E500212C4B3B4A1970107F7A
:108100003A4B11771870012001F0B6F92E4B02227C
:108110001A70E2E7122D00D9DEE52800FAF7E4FB39
:10812000F8FDF8FDF8FDF8FDF8FDF8FDF8FDF8FDA7
:10813000F8FDF8FDC2FE4CFF5AFF90FFA6FFDFFFDF
:10814000E4FFF8FDF8FD122D00D9A1E52800FAF7AB
:10815000CBFBDDFDDDFDDDFDDDFDDDFDDDFDDDFD63
:10816000DDFDDDFDDDFDCBFE33FF41FF49FF8DFF72
:10817000C6FFCBFFDDFDDDFD122D00D98CE528000B
:10818000FAF7B2FBDDFDDDFDDDFDDDFDDDFDDDFD35
:10819000DDFDDDFDDDFDDDFDDFFD1AFF28FF32FF2A
:1081A00074FFADFFB2FFDDFDDDFDC0466A130020A8
:1081B000E9170020A2170020D01B0020DA1B0020A6
:1081C0007038010864180020BC000020A1170020AE
:1081D000BB170020CB170020EA1700209C170020B7
:1081E000BC17002060180020B81A00202C180020AE
:1081F00010B5012001F040F90123034A1370034A2E
:108200001370034A137010BD601800205818002026
:10821000BC0000200022044B1A70044B01321A707B
:10822000034B1A707047C0465818002029180020C8
:1082300060180020002300B50B60482863D8FAF7C7
:1082400049FB2529313739373933623D5A5A5A4467
:1082500044445C462F2B5C252D5C5A353B5A5A5AB8
:108260005A2F485A5C44464141416262485A4A5A30
:1082700048336233335A2F5A56585A5C5C5E5A5A06
:108280005A5A5A5A4E52525252524800092300200A
:10829000136000BD1723FAE73D23F8E701230B60C5
:1082A0000A23F4E70723F2E70223F0E76823EEE767
:1082B000D023ECE73223EAE72823E8E705230B6025
:1082C000AE33E4E701235B420B60C723DFE70523FE
:1082D000DDE70423DBE703230B606033D7E70B4BB9
