:020000040800F2
:1028000000400020A92D0008912D0008932D0008FC
:1028100000000000000000000000000000000000B8
:10282000000000000000000000000000952D0008DE
:102830000000000000000000972D000879AE00089D
:10284000F92D0008F92D0008F92D0008F92D0008D0
:10285000F92D0008F92D0008F92D0008F92D0008C0
:10286000F92D0008F92D0008F92D0008C9460008C7
:10287000F92D0008F92D0008F92D0008F92D0008A0
:10288000F92D0008F92D0008F92D0008F92D000890
:10289000F92D0008F92D0008F92D0008F92D000880
:1028A000F92D0008F92D0008F92D0008F92D000870
:1028B000F92D0008F92D0008000000000D23010883
:1028C00002B4714649084900095649008E4402BCC9
:1028D0007047C04602B4714649084900095C490086
:1028E0008E4402BC7047C04603B47146490840009C
:1028F0004900095E49008E4403BC704703B4714629
:10290000490840004900095A49008E4403BC7047F9
:10291000002243088B4274D303098B425FD3030A1E
:102920008B4244D3030B8B4228D3030C8B420DD331
:10293000FF22090212BA030C8B4202D312120902BF
:1029400065D0030B8B4219D300E0090AC30B8B42FD
:1029500001D3CB03C01A5241830B8B4201D38B03AB
:10296000C01A5241430B8B4201D34B03C01A524150
:10297000030B8B4201D30B03C01A5241C30A8B4293
:1029800001D3CB02C01A5241830A8B4201D38B027E
:10299000C01A5241430A8B4201D34B02C01A524122
:1029A000030A8B4201D30B02C01A5241CDD2C30994
:1029B0008B4201D3CB01C01A524183098B4201D310
:1029C0008B01C01A524143098B4201D34B01C01AFB
:1029D000524103098B4201D30B01C01A5241C30873
:1029E0008B4201D3CB00C01A524183088B4201D3E2
:1029F0008B00C01A524143088B4201D34B00C01ACE
:102A00005241411A00D20146524110467047FFE739
:102A100001B5002000F0F0F802BDC0460029F7D053
:102A200076E7704703460B437FD4002243088B426E
:102A300074D303098B425FD3030A8B4244D3030B45
:102A40008B4228D3030C8B420DD3FF22090212BA0A
:102A5000030C8B4202D31212090265D0030B8B4286
:102A600019D300E0090AC30B8B4201D3CB03C01A70
:102A70005241830B8B4201D38B03C01A5241430B4B
:102A80008B4201D34B03C01A5241030B8B4201D33B
:102A90000B03C01A5241C30A8B4201D3CB02C01AA6
:102AA0005241830A8B4201D38B02C01A5241430A1E
:102AB0008B4201D34B02C01A5241030A8B4201D30D
:102AC0000B02C01A5241CDD2C3098B4201D3CB01B4
:102AD000C01A524183098B4201D38B01C01A524163
:102AE00043098B4201D34B01C01A524103098B4267
:102AF00001D30B01C01A5241C3088B4201D3CB0052
:102B0000C01A524183088B4201D38B00C01A524134
:102B100043088B4201D34B00C01A5241411A00D2E4
:102B200001465241104670475DE0CA0F00D049424D
:102B3000031000D34042534000229C4603098B42BD
:102B40002DD3030A8B4212D3FC22890112BA030A45
:102B50008B420CD3890192118B4208D389019211C7
:102B60008B4204D389013AD0921100E08909C3094C
:102B70008B4201D3CB01C01A524183098B4201D34E
:102B80008B01C01A524143098B4201D34B01C01A39
:102B9000524103098B4201D30B01C01A5241C308B1
:102BA0008B4201D3CB00C01A524183088B4201D320
:102BB0008B00C01A5241D9D243088B4201D34B003B
:102BC000C01A5241411A00D20146634652415B107D
:102BD000104601D34042002B00D54942704763465E
:102BE0005B1000D3404201B5002000F005F802BDA3
:102BF0000029F8D016E770477047C0461C21012312
:102C00001B04984201D3000C10391B0A984201D3CF
:102C1000000A08391B09984201D30009043902A2AD
:102C2000105C40187047C046040302020101010114
:102C30000000000000000000844608006146FFE735
:102C40001FB510F047F9002801D40021C8421FBD6C
:102C500010B510F0CDF84042013010BD10B510F0A5
:102C600039F9002801DB002010BD012010BDC0464D
:102C700010B510F02FF9002801DD002010BD012053
:102C800010BDC04610B510F0DBF8002801DC0020B4
:102C900010BD012010BDC04610B510F0D1F80028BD
:102CA00001DA002010BD012010BDC0460023C25C27
:102CB0000133002AFBD1581E704700000448054B21
:102CC00010B5834203D0044B002B00D0984710BDB1
:102CD000540100205401002000000000064807496C
:102CE000091A8B10C90FC91810B5491003D0044B2D
:102CF000002B00D0984710BD540100205401002043
:102D00000000000010B5074C2378002B09D1FFF715
:102D1000D5FF054B002B02D0044800E000BF012383
:102D2000237010BDC0020020000000002030010808
:102D3000054B10B5002B03D00449054800E000BF47
:102D4000FFF7CCFF10BDC04600000000C402002009
:102D50002030010807B501210B4B0C481A6C0A43BF
:102D60001A641A6C0A4080210192019ADA6B4905B3
:102D70000A43DA63DB6B0B400093009B00F03EF9E3
:102D80000BF016FCFEE7C04600100240006CDC02AF
:102D90007047FEE770477047014B024A9A607047E0
:102DA00000ED00E0002800080D488546FFF7F4FF1D
:102DB0000C480D490D4A002302E0D458C450043396
:102DC000C4188C42F9D30A4A0A4C002301E013606C
:102DD0000432A242FBD310F0C5F8FFF7BBFFFEE7B9
:102DE0000040002000000020540100201C4E01087B
:102DF000C0020020C0360020FEE70000054B064A56
:102E00009B681B051B0F9B009B581F221340D8403B
:102E10007047C046001002406C310108054B064A5D
:102E20009B685B045B0F9B009B581F221340D8409C
:102E30007047C046001002404C3101080A4AD3686E
:102E4000DB439B070BD0536808491B045B0F9B00B7
:102E500058580C23D2681A4203D1400070470448E6
:102E6000F7E703235843F9E7001002402C3101082B
:102E700000366E013821104A10B593680B40102BB4
:102E800015D00DD8082B15D00720536812685B0B9E
:102E900003400A499B00D20A02405858D04008E03B
:102EA0000821183B8B43EFD18020000201E0FFF79F
:102EB000C5FF10BD0248FCE7001002402C3101089C
:102EC00000366E0110B50400FFF7D4FF2060FFF755
:102ED00095FF6060FFF7A2FFA06010BD104B10B51A
:102EE000CB5CD468C01893680168234314692343FA
:102EF0005469234394692343D4692343546A234385
:102F0000084C21400B4303605368C3601368126A86
:102F1000836043681B0C1B0413434360002010BDF7
:102F2000AB3101080F80FFFF002303604360836023
:102F3000C360036143618361C3610362436270479D
:102F4000F7B500254B680A6800935F1E1300EB403D
:102F500009D1012F05D84368C96893434A431343F5
:102F600043600020FEBD01241300AC4023402242F8
:102F70002BD01A0003265A435643B446F643019613
:102F800066460468B443009E564334430460012FF0
:102F900006D88C6887685443019E37403C43846060
:102FA0000C69C7685443019E37403C43C460009C91
:102FB000022C0AD14C69FF2B09D80F2652435643E5
:102FC0006243036AB3431A4302620135BAE70F262C
:102FD0001B0A5B435B435E435C43426AB24322434A
:102FE0004262F2E7044B03600323436000238360E3
:102FF000C360036143617047FFFF0000014B18602D
:103000007047C046000000200368020070B5012030
:103010005B0620D44E680B68486933438E68156898
:103020003343CE680C6A33430E6933438E690343DE
:103030003343CE69000C33430B4E234335402B43BF
:10304000042513605368AB431843802350609B01F1
:103050009C4205D00020D36904490B40D36170BD68
:103060004B6A9BB21361F5E74000FFFFFFF7FFFFDC
:103070000023036043608360C36003614361836135
:10308000C361036207334362704700007FB5C368C2
:1030900004000D009B0402D5012004B070BD4B68F4
:1030A000C968C2680B4329690B432D490A40134381
:1030B000C36043692B4A1340AA6913434361036900
:1030C000294A1340AA68134303614369274A1340FE
:1030D0006A691343436101A8FFF7F4FE039B002BC9
:1030E000DAD029680029D7D0192058438023AA694B
:1030F0001B019A421DD14900FFF70AFC642106001A
:10310000FFF78CFCC80032306421FFF701FC64211A
:1031100085B23000FFF7FCFB072300012B40C018ED
:10312000F8236D005B001D40401980B2A0600020B4
:10313000B3E78900FFF7ECFB64210600FFF76EFCA4
:10314000080132306421FFF7E3FB64210500300001
:10315000FFF7DEFB00012D18ADB2A560E7E7C04622
:10316000F3E9FFFFFFF7FFFFFFCFFFFFFFFCFFFFCC
:1031700096239B010C22036000230261436083605D
:10318000C36043618361704710B5074B1B78012B07
:1031900005D8082006F0EAF8082006F0E7F8002233
:1031A000024B1A7010BDC046571B0020780000204B
:1031B00037B520220125254B254CD96B1143D96306
:1031C000D96B114001910199996B29439963996BCE
:1031D000294000910099D96A1143D962D96A914373
:1031E000D9620023F021A3621A4B89011868FFF706
:1031F0008FFB80230138E062226817481343236065
:103200008023E2685B0013430222E3602368934358
:103210002360124B1A68AA431A60C168104A114011
:103220009C2292030A43C26019680E4A11400E4A5A
:103230000A4340211A600D4ADA600D4A9A605A68C2
:10324000120C12040A435A6037BDC04600100240F7
:1032500000140040000000200000014080000240F7
:10326000FFFFC0FF0F80FFFFB02A0000E402002034
:1032700018140050014B18787047C046E002002037
:10328000F8B5274D04002B78834211D0002810D1C7
:103290000120244A136883431360234A136883433D
:1032A000136001F05FFC8022204B52009A622C7068
:1032B000F8BD1F4BFF211E5CB6013000FFF728FB55
:1032C000FF2300229B019E421BD01100194E0B00D0
:1032D00082424B41184F5B423B4001339700FF3322
:1032E0000132F351402AF2D101230E4A11681942EA
:1032F000DDD10D4801681943016011680B4313606B
:10330000D5E70121074A13688B431360064A136807
:103310008B4313608022054B52009A61C7E7C04679
:10332000DC02002000140040800002400014005025
:10333000B3310108E402002000FFFF0010B5054B87
:10334000587AFFF79DFF0022034B1A80034B1A7037
:1033500010BDC0462B1C0020E2020020E00200202D
:10336000782170B51D4A1E4B12781E4D4A431A80B3
:103370001D4A1E4B12781E4C1A70EB7D002B07D194
:10338000FFF7DCFF2378002B01D0FFF7FDFE70BDB7
:103390000122184B1A702378002B19D0002420002A
:1033A000FFF76EFF322001F0B5FB2B00FF33013435
:1033B0009B7AE4B2A342F2D2FFF7E6FEE97D002356
:1033C0000D4A3D2902D00A234B4301331380DEE727
:1033D0002B00FF33987AFFF753FFEFE784000020BC
:1033E000DE0200202C1B0020DC02002099180020A7
:1033F00078000020E0020020E2020020F8B58023DF
:10340000040008260127114D5B00AB6263B2002B5C
:1034100017DB80239B00AB62380001F0A3FB802305
:103420005B003800AB6101F09DFB80235B0038003E
:103430006400AB62013E01F095FBE4B2002EE5D1E1
:10344000F8BD80239B00AB61E6E7C0460004005056
:10345000F7B580258026214C214FAD0076000190E4
:10346000BD610120A66201F07DFB8020019BBD6251
:1034700003431800FFF7C2FF23681A4A01201340D4
:10348000236001F06FFB10230025019301222369C3
:103490006D005B0A13401000ADB2A6611D4301F040
:1034A00061FB0120A66201F05DFB019B013B0193E2
:1034B000002BEBD122680B4B01201A408023DB024A
:1034C0001343236080239B00BB6101F04BFB8023EF
:1034D0009B002800A661A361FEBDC0460004005009
:1034E00000140050FFFFF3FFF8B5802304001026FE
:1034F0000127114D5B00AB6223B2002B17DB802349
:103500009B00AB62380001F02DFB80235B0038008C
:10351000AB6101F027FB80235B0038006400AB62E5
:10352000013E01F01FFBA4B2002EE5D1F8BD8023BF
:103530009B00AB61E6E7C04600040050F7B580246D
:1035400080270F4E0F4DA4007F0001910090B461C1
:103550000120AF6201F006FB0098B462FFF74EFF56
:10356000012001F0FFFA0198FFF7BEFF012001F0F2
:10357000F9FAB461012001F0F5FAAF61AC61F7BD71
:1035800000140050000400501FB580228021564BCB
:1035900092009A61554B4900996180219A610020FF
:1035A0000902FFF7CBFF00210800FFF7C7FF372014
:1035B0004F49FFF7C3FF22213620FFF7BFFFC62187
:1035C00010208900FFF7BAFF11204A49FFF7B6FF24
:1035D00012204949FFF7B2FF13204849FFF7AEFF19
:1035E000842114208900FFF7A9FF49204449FFF7EF
:1035F000A5FF7B204349FFF7A1FF7D204249FFF74C
:103600009DFF48204149FFF799FF40204049FFF7BF
:1036100095FF102268463F490FF0EAFC00246B46F4
:10362000195D23031943092089B20134FFF786FF8E
:10363000102CF4D1F8211C20C900FFF77FFF1D20BA
:103640003549FFF77BFF1E203449FFF777FF1F2026
:103650003349FFF773FF3E203249FFF76FFF7320B6
:103660003149FFF76BFF77203049FFF767FF1920DB
:103670002F49FFF763FFB42128200901FFF75EFF00
:10368000AA2129200902FFF759FFCC212A20C901CC
:10369000FFF754FF2C202749FFF750FF2F20264922
:1036A000FFF74CFF53202549FFF748FF7E202449B0
:1036B000FFF744FF46202349FFF740FF4A202249F5
:1036C000FFF73CFF07202149FFF738FF9021204BEF
:1036D000204A332009021A80FFF730FF00213F20E3
:1036E000FFF72CFF1FBDC04600140050000400501F
:1036F0001F9D00003A030000DB030000DF03000011
:10370000B22A0000DC73000020E90000A8330000AA
:1037100016350000BE31010855E50000584C000088
:103720005AC60000C694000091460000EF880000D1
:103730004E10000022180000909800002820000081
:103740003E3000000A60000030540000CE610000EE
:10375000E60300200090FFFF10B504007E20FFF775
:1037600077FEC3439BB2DB0BA3420CD00123C021E5
:1037700063400005DB03000D18438901014389B252
:103780007E20FFF7DBFE10BD10B5134904001320A7
:10379000FFF7D4FE12201149FFF7D0FE1120104987
:1037A000FFF7CCFE7A211020FFF7C8FE002C0DD0C9
:1037B00000211420FFF7C2FEC92149014920FFF76B
:1037C000BDFE7B200749FFF7B9FE10BD192114206B
:1037D000FFF7B4FE0449F1E7BE0300007B030000DD
:1037E0007B02000020840000382A000010B5094C3C
:1037F0002388002908D04022C240134399B23320C5
:103800002180FFF79BFE10BD412149420141194033
:10381000F5E7C046E603002010B5040051200A4930
:10382000FFF78CFE07200949FFF788FE21050820D5
:10383000090DFFF783FE802321021B02090D0820DA
:103840001943FFF77BFE10BD33A00000D70A00002C
:103850000C4B10B5C1184B1E9941040049420A4B4C
:10386000890A8902C9185120FFF768FE0748084BEA
:1038700060430849C018FFF74BF881B20720FFF7F3
:103880005DFE10BDBFF5FFFF4094000098260300C9
:1038900050C30000A0860100074B0100400810B58E
:1038A000C018FFF735F880218901014389B207204C
:1038B000FFF744FE10BDC046D6DF03005C2110B503
:1038C000032802D8034B4000C15A4320FFF736FEBD
:1038D00010BDC0468E370108064A222310B591421A
:1038E00000D81A3B80210002184301433620FFF71D
:1038F00025FE10BDFF3EAB0110B5040081B238209B
:10390000FFF71CFE3920210CFFF718FE10BD000048
:1039100010B50349000201434720FFF70FFE10BD19
:1039200042600000F0B5CCB285B020001E000D0A48
:103930000291FFF78DFD01AFFB88EDB2AB400100B6
:10394000AE4099433143200089B2FFF7F7FD05B03F
:10395000F0BD000010B537200549FFF7EFFD00214D
:103960003020FFF7EBFD30200249FFF7E7FD10BDE7
:103970001F9F0000F1BF0000F7B51C0008AB1E78C8
:10398000009009AB01917020002115001F78FFF70E
:10399000D5FDA021090231434D20FFF7CFFDD821ED
:1039A000C90139434E20FFF7C9FD210229434F20A9
:1039B000FFF7C4FD009B78201902019B1943FFF714
:1039C000BDFD0020FFF7A4FFFFF7C4FFF7BD000017
:1039D0000A4B012110B5984202D90021013007D1CC
:1039E0000420FFF703FF00210320FFF7FFFE10BDB7
:1039F0000420FFF7FBFE0121F6E7C046FF3EAB01C6
:103A000010B53120FFF724FD0223984381B2312005
:103A1000FFF794FD00212B20FFF790FD10BD000063
:103A200070B505003120FFF713FD0400002D06D10D
:103A300008239C43A1B23120FFF780FD70BDAB1E6F
:103A40005A1E9341AD21DB03890119432920FFF759
:103A500075FD0120A8428041054940428003014391
:103A60002820FFF76BFD0821214389B2E3E7C04618
:103A7000382B000010B53120FFF7EAFC04239843EF
:103A800081B23120FFF75AFD10BD10B5002124206E
:103A9000FFF754FD10BD0000DB2110B52120C90047
:103AA000FFF74CFD24200249FFF748FD10BDC0463A
:103AB0007FC1000010B550200149FFF73FFD10BD48
:103AC00018BB000070B50C00631E9C410500FFF799
:103AD000F1FF0320FFF71CFF0D4B61421940E0236B
:103AE0001B02C9187020FFF729FD00213020FFF7C5
:103AF00025FD30200749FFF721FD802306495B02A1
:103B00006943C9187120490CFFF718FD70BDC04604
:103B100000BCFFFF020300001DA6140010B55020DA
:103B20000149FFF70BFD10BD183B000010B5002147
:103B30003020FFF703FDE82137204901FFF7FEFCA5
:103B400010BD000010B500217020FFF7F7FC002029
:103B5000FFF7DEFEFFF7E2FF00213020FFF7EEFC6B
:103B600030200249FFF7EAFC10BDC046F1BF00005B
:103B700010B5C3217020FFF7E1FC72200A49FFF75E
:103B8000DDFCC1215820FFF7D9FC5C200749FFF775
:103B9000D5FC8E215D20C901FFF7D0FC5E200449D1
:103BA000FFF7CCFC10BDC046653000006556000034
:103BB0000432000010B500213020FFF7BFFC10BD1B
:103BC00010B500213F20FFF7B9FC68215920FFF70D
:103BD000B5FC1E2000F09EFFFFF7ECFF10BD10B5F6
:103BE0000020FFF795FE7E20FFF732FC38232821C6
:103BF0009843014389B27E20FFF7A0FC10BD00006E
:103C000010B500213620FFF799FC37200749FFF750
:103C100095FC52200649FFF791FC00213020FFF768
:103C20008DFC30200349FFF789FC10BD1F9D00006B
:103C30008F020000FEC1000010B5FFF7D0FFFFF7B4
:103C40006DFFFFF7DDFF10BD10B500215120FFF71C
:103C500075FC10BD054B10B51B78002B05D001215C
:103C60000020FFF7C3FDFFF775FE10BDE403002041
:103C700010B50400FFF71EFF0020FFF749FE0021EA
:103C80007020FFF75BFCFFF700FF30200349FFF7D0
:103C900055FC002C01D1FFF741FF10BDFEC1000013
:103CA00010B530200149FFF749FC10BDFAC30000F0
:103CB000F8B51D0007000E001400FFF7FBFE281EDC
:103CC00005D0A02380220320DB0552009A61FFF774
:103CD0001FFEFE232102DB0119400133FF3319438C
:103CE0007020FFF72BFCFFF7DBFF322000F012FF04
:103CF00080231249BFB279435B02C9187120490C75
:103D0000FFF71CFCFFF70AFF300000F003FFFFF78E
:103D1000D1FE002D07D0A0238022DB055200002019
:103D20009A62FFF7F5FD00217020FFF707FC3020B5
:103D30000349FFF703FCFFF7F1FEF8BD1DA61400D1
:103D4000FEC1000010B50400FFF7A6FEFFF7B2FEAB
:103D50000020844200D00330FFF7DAFD70200349D1
:103D6000FFF7ECFBFFF79CFF10BDC046C3C300008C
:103D700070B590B004004022684618490FF038F939
:103D8000392C08D82F2C25D8232C25D00EAD2A2C41
:103D900009D010B070BD2300413B373C032BF8D84D
:103DA000A4006C44250028880D4C0E4E60430E493B
:103DB0008019FEF7ADFD81B27120FFF7BFFB6B8864
:103DC00009495C43A019FEF7A3FD81B27220FFF7F9
:103DD000B5FBDEE7303CE3E70FADE4E73830010840
:103DE0004C9301008813000010270000F0B5002458
:103DF00085B01E000AAB1F880BAB1B880500019124
:103E000002920393A0421AD105B0F0BDFFF7B0FFB4
:103E1000FFF784FE019B002B02D00298002C06D0F5
:103E20002B5D30002A2B02D0232B00D0380000F06D
:103E300071FEFFF73FFE039800F06CFE0134285D31
:103E40000028E3D1E0E7000070B50D000400FFF7A3
:103E500031FEC22170200902FFF770FB80230B495D
:103E6000ADB269435B02C9187120490CFFF766FBCC
:103E70000020844200D00330FFF74AFDFFF710FF17
:103E8000322000F047FEFFF749FE70BD1DA614006A
:103E900010B5042808D8FEF71DFD03080A0C0E0013
:103EA00006495220FFF74AFB10BD0549F9E70549CD
:103EB000F7E70549F5E707200449F3E78F8200009B
:103EC0008FA200008FC200008FE200006F0400008C
:103ED00010B50020FFF7DCFF51200249FFF72EFB51
:103EE00010BDC0464080000010B50420FFF7D0FF91
:103EF00051200249FFF722FB10BDC0464090000050
:103F000010B56720FFF7A4FAC005C00D10BD10B5AD
:103F1000FFF7F6FF4008A03800B210BD10B56420CE
:103F2000FFF796FA10BD000070B506000D20FFF7F0
:103F30008FFA03B2DD430400ED0F002B07DB0E20E8
:103F4000FFF786FA034B24041C4004433460280026
:103F500070BDC0460000FF0770B5060069200D0067
:103F6000FFF776FA040003040BD46A20FFF770FA17
:103F70000C4B24030005000D1C4004430220346058
:103F800070BD6820FFF764FA030000201A04F7D41C
:103F90000548DB04DB0C58430449FEF743FD288049
:103FA0000120EDE700F0FF00EB12000010270000F9
:103FB000912110B532208900FFF7C0FA10BD000032
:103FC00010B532200149FFF7B9FA10BD45020000D3
:103FD00010B5FFF791FCC02151208900FFF7AEFA20
:103FE000FFF7B8FC10BD10B5FFF7E4FD10BD10B52C
:103FF000FFF7DEFFFFF7DEFD10BD10B50B20FFF76A
:1040000027FA0005000F10BD10B50C20FFF720FAAD
:10401000800BC0B210BD10B50C20FFF719FA0005D7
:10402000800F10BD70B504001E2000F073FD8021CC
:104030003F200902FFF782FA59201749FFF77EFA5D
:10404000250068215920FFF779FA483521885F203B
:104050000234FFF773FAAC42F8D1142000F05AFD95
:1040600059200E49FFF76AFAC82401250C20FFF7F2
:10407000EFF9284206D1013C0520E4B200F04AFDE8
:10408000002CF3D100210220FFF758FA1E2000F087
:1040900041FDFFF795FD70BD6880000068280000B5
:1040A00010B5FFF78DFD00210220FFF747FA002130
:1040B0003F20FFF743FAFFF74DFCC0213F20890165
:1040C000FFF73CFA59200449FFF738FA5920034911
:1040D000FFF734FA10BDC0466840000068300000A9
:1040E00030B58BB02422194901A80EF081FF0020C1
:1040F000FFF70EFC002501AC618820780135FFF741
:104100001DFA0434092DF7D10024114A63005F2001
:10411000D15A0134FFF712FA072CF6D1142000F01F
:10412000F9FC0C495920FFF709FAB42000F0F2FC21
:1041300068215920FFF702FA00217020FFF7FEF9ED
:1041400000215820FFF7FAF90BB030BD7830010894
:10415000963701086808000010B51B4B1B78012B2F
:104160002DD1FFF7A7FC0020FFF7D2FBC321702061
:104170000902FFF7E3F9FFF793FD322000F0CAFCD4
:1041800012497120FFF7DAF9FFF7C8FC502000F060
:10419000C1FCFFF78FFC0E497120FFF7CFF9FFF745
:1041A000BDFC502000F0B6FCFFF784FC002170201D
:1041B000FFF7C4F930200749FFF7C0F910BD022B03
:1041C000FCD1FFF78DFFF9E7581B00201C3E0000D3
:1041D000D5340000FEC1000070B505000C00FFF7EB
:1041E0005BFCFFF767FC0020854200D00330FFF73F
:1041F0008FFB07497020FFF7A1F9FFF751FD32202F
:1042000000F088FC2000FFF7B3FDFFF787FC70BDCE
:10421000C3C300000222064B99681142FCD0012260
:10422000187399681142FCD0D868C0B27047C04674
:104230000038004010B50400000CC0B2FFF7EAFFE0
:10424000200AC0B2FFF7E6FFE0B2FFF7E3FF10BDC0
:1042500070B5A0250826094CED050520AE62FFF7D4
:10426000D9FFFF20FFF7D6FFAE61C00705D50A20B2
:10427000013C00F077FC002CEFD170BD40420F00F4
:1042800070B5A02408250600E405A5620620FFF706
:10429000C1FFA561FFF7DCFFA5622020FFF7BAFF91
:1042A0003000FFF7C7FFA561FFF7D2FF70BD000028
:1042B000F0B585B06B46039002921A7B8023A0254F
:1042C0005B0001919B1AED05029C9C4200D91C00E9
:1042D00008231E00AB620620FFF79CFFAE610220A0
:1042E000AE62FFF797FF0398FFF7A4FF019E37190F
:1042F0000F2C5CD940220120802730497F010B68B8
:1043000093430B602E4B1A6882431A602D4A16683D
:10431000864316602C4E77601F682C4E37401F6016
:104320001768374090263E431660294F294EDE60BD
:104330009F605E68360C360426435E60019ED66040
:1043400097605668360C360426435660224EB446B3
:10435000002667463E701F68023637431F601F689D
:1043600007431F6013680343136040224B681843E0
:1043700048600B6813430B604B681E434E606346F6
:104380001B78002BFBD00823AB61FFF761FF039B79
:104390001B190393019B1B190193029B1B1B029387
:1043A0008023029A5B00002A8ED105B0F0BD3078E0
:1043B0000136FFF72FFFBE42F9D1E4E70038004095
:1043C0004400024058000240000002400F80FFFFFE
:1043D0000C380040E9030020E8030020F0B5A027D6
:1043E000082680210124344BFF058FB0BE61DA6BB3
:1043F000C9010A43DA63DA6B04A80A400392039AFC
:104400009A6B002522439A639A6B22400292029A89
:104410005A6B22435A635B6B23400193019BFEF767
:10442000E1FD022304A9059338001B1906930996A0
:10443000079508940494FEF783FD092304A9380026
:10444000023E04960993FEF77BFD1C4B1C4A9968BB
:1044500080201140A022D2040A433F219A60DA68EA
:10446000C0058A43C2211643164ADE6089005358AC
:104470001B021B0A0343535080231B01136004A833
:10448000FEF7F6FD82235B000593033B0894FF3B98
:104490000D4C0793FF33FF33200004A909930495C3
:1044A0000A950B950C95FEF7AFFD40232268134348
:1044B00023600FB0F0BDC046001002400000014074
:1044C000FFFFFFC000E100E000380040F8B5A02386
:1044D000150008220600DB0503209A620C00FFF796
:1044E00099FE3000FFF7A6FE0F2D08D86519AC42E3
:1044F0004FD0FF20FFF78EFE20700134F7E74021F8
:1045000001208027254A7F0113688B431360244BC9
:1045100019688143196023490E6886430E60224E54
:1045200077601F68214E3740B446842676013E43AB
:104530001E6066460F6837401D4E3E430E601D4E9E
:10454000DC609E605C68240C24042C435C601A4C84
:10455000CC608E604C68240C24042C434C600024F6
:10456000164D2C701E68023426431E601E680643DA
:104570001E600B6803430B60402153681843506072
:1045800013680B43136053681C4354602B78002B53
:10459000FCD0A0230822DB059A61F8BD003800405A
:1045A0004400024058000240000002400F80FFFF1C
:1045B000101000000C380040E9030020E803002040
:1045C000F0B587B0059380230705040B3F0D5B0111
:1045D0000190029103922403DB1B039A002A01D16C
:1045E00007B0F0BD039D9D4200D91D00294E3368E0
:1045F000A34206D08022200027495201FFF766FF20
:104600003460254E2A00BE19310002980EF0F9FCE4
:10461000002824D00023F25CFF2A2ED101339D42D2
:10462000F9D100232A003000029904930EF0E0FC37
:10463000049B002B2AD02000FFF722FE059B164E7C
:10464000002B1CD0EF193A0031002000FFF730FE9C
:1046500080225201FF21D21BF0190EF0B9FC019B00
:1046600000275B190193029B5B190293039B5B1B61
:10467000039380235B01E418AFE70123D2E7802294
:10468000310020005201FFF713FEE8E72A000299EB
:104690000198F8E704000020EA03002010B5040B9D
:1046A00024032000FFF7ECFD054B1B68A34205D156
:1046B0008022FF21034852010EF08AFC10BDC04643
:1046C00004000020EA0300208020144980010B68C8
:1046D00010B5034221D00224114B1A6822421CD08B
:1046E0001A68A2431A60C0220E4B486052019968B2
:1046F0001142FCD1802299681142FCD1C022D20023
:1047000099681142FCD102215A688A435A605A685A
:1047100001398A435A60044B197010BD00000240F1
:104720004400024000380040E80300207823F7B539
:1047300000251F4EB36100240823270001930120A8
:1047400000F010FA3A00F02733693F021F40974209
:1047500020D10134032C1ED18022802112020902B3
:104760001A400B421ED05A041ED59A041ED5DB04F3
:1047700005D4104BAA009B18185D132811D10135E0
:10478000052D0DD078230722B361521B773B934050
:10479000B362D0E70124019B013B0193002BCED1F2
:1047A0001320FEBD1400E4E70124E2E70224E0E761
:1047B00000040050A43701080222054B99681142F9
:1047C000FCD00122187399681142FCD0DB68704755
:1047D0000030014070B51D0004AB00241C5F431A7B
:1047E000601B5843511AFEF71DF9401900B270BD05
:1047F00070B5124CC001241825000C203635260057
:1048000028701225373635704236357025007A35D6
:104810002870581A8001511AFEF704F9212538230F
:104820002D263830C0B2DAB22900904200D33100D0
:10483000E1540133792BF6D170BDC046EE13002050
:104840007047A02340225039DB0510B59A6204005E
:10485000C8B2FFF7B1FF102023091843FFF7ACFFE0
:104860000F202040FFF7A8FF10BDF8B5140004305A
:10487000C0B21D00FFF7E5FFA02340222600DB05A4
:104880009A612F19BE4200D1F8BDE8B2002C00D0C9
:104890003078FFF791FF0136F4E7000070B504258A
:1048A000034CC9B2A562C0B2FFF7DFFFA56170BDBE
:1048B00000040050042370B505000024064EB362C6
:1048C0000022E1B22B0010000134FFF7CEFF082CCC
:1048D000F6D10423B36170BD00040050A023402230
:1048E00010B5DB059A62FFF767FF10BDF8B504232A
:1048F000124E0400B3624020FFF7F0FF104A002C74
:1049000007D0104B01251F00072C0AD8621ED201C8
:10491000D218802321000020FFF7A7FF0423B361F2
:10492000F8BD290001353A0080230020EDB2FFF7E1
:104930009CFF8037082DF4D1F0E7C04600040050FA
:104940006E170020EE13002010B50820FFF7CEFFF1
:1049500010BD10B50130C0B2FFF7C8FF10BD10B5D3
:104960000020FFF7C3FF10BD10B5032804D00728AF
:1049700009D0074B185C03E0064B1878A6231843B0
:10498000FFF7ACFF10BD044B18781530C0B2F7E745
:104990000A0000200F1B002082000020042370B5B5
:1049A0000024064DAB6220000134E4B2FFF7DCFFC7
:1049B0000B2CF8D10423AB6170BDC046000400503D
:1049C0000422074B10B5E2209A62FFF787FF00240C
:1049D00020000134E4B2FFF7C7FF082CF8D110BD66
:1049E00000040050802170B501253E4B49011A6C2E
:1049F0008CB00A431A641A6C02A80A400192019A08
:104A00005A6B00242A435A635B6B02262B400093A7
:104A1000009BFEF7E7FA0323A020049302A91D33AD
:104A2000C00502930695039607940594FEF788FA4D
:104A3000A020802302A9C00502930694FEF780FA05
:104A400002A8FEF715FB82235B0003930695FC3357
:104A5000254D0793D93BFF3B280002A908930294F8
:104A60000494059609940A94FEF7CEFA40232A6826
:104A7000E22013432B6004231C4DAB62FFF72EFF93
:104A8000782000F047F820000134E4B2FFF76CFF13
:104A9000082CF8D12B20FFF721FF012000F03AF875
:104AA0002E20FFF71BFF012000F034F82F20FFF726
:104AB00015FF2F20FFF712FF2F20FFF70FFF2F20EA
:104AC000FFF70CFF282000F025F84020FFF706FF35
:104AD000AF20FFF703FF04230020AB61FFF7EAFEDE
:104AE0000CB070BD001002400030014000040050C6
:104AF00070B50425064C2820A562FFF7EFFE402084
:104B0000FFF7ECFEAE20FFF7E9FEA56170BDC046E1
:104B100000040050FA2310B59B00584300F022F81F
:104B200010BD0000C0200B490B4B0C4A4B60136AB0
:104B300000061B021B0A0343136200238B6007332A
:104B40000B603021064B1960136A1B021B0A1362AB
:104B50007047C04610E000E0FF52070000ED00E0A3
:104B6000F01700200A4B70B51B680A4C584300230D
:104B70006668A168A2689142FCD0B51A914200D93A
:104B80005542CB185B19984200D870BD1100F1E76F
:104B9000F017002010E000E0084B1A682832137864
:104BA0000133DBB2072B00D9012313700122044B20
:104BB0001A70044A044B12781A707047241B0020A4
:104BC000BD1800208D1C0020B40000200122064BDF
:104BD0001A70064B1A68333213780133DBB2032B99
:104BE00000D1002313707047BD180020241B002043
:104BF0000123024A11784B4013707047081B0020B4
:104C0000064A10B51378002B03D00549054B0978E7
:104C1000D97500231370FEF7A3FB10BD9C1800206C
:104C20009A1800202C1B002001210E4B10B51A7879
:104C30005140197000230C4A994202D11300693384
:104C40001B78110068310B706A3211781B0119430F
:104C5000B0231B0219434820FEF770FC0122034BCE
:104C60001A7010BD9B1800202C1B0020D4180020A7
:104C700010B5134B1B78022B08D005F0F3FD012073
:104C800005F0A0FE022000F03FFB10BD00220D4BFE
:104C90001A700D4B1B785BB2934208D00B4B1988EE
:104CA0000B4B19800B4B1A700B4B01321A70012001
:104CB00005F088FE094A0A4B12781A70E5E7C046EB
:104CC0006A180020F01A002022180020D846010897
:104CD000CA1800207A000020201800208D1C002017
:104CE000B400002010B5134C032023683333197827
:104CF000012912D004F004FF011E11D022682C32C9
:104D000011784B424B410020DBB21370814201D13C
:104D1000094A10780021C018C0B2FEF7CFFD10BDBF
:104D2000064B1A682C32137858424341D8B210709F
:104D3000F3E7C046201B00200A1B0020241B002094
:104D40000B4B1A7B002A02D05B7B002B0ED1032277
:104D5000084B01211A700022074B1A70074B19707B
:104D6000074B1B788B4201D0064B1A707047C04628
:104D70002C1B0020C81800203C1C0020BB18002061
:104D80008D1C0020B400002070B504F073F8041EE0
:104D900018D10025234B14221870234B21001870C2
:104DA00022480EF015F905F05DFD200009F0C8FA63
:104DB0001F4E7557002D1DD01E4B1B78C72B02D9D7
:104DC00001F0D0FE70BD1C4D0621687E0130FDF75C
:104DD0000FFF697606F0EEFF00212000715601F00A
:104DE000F5FD0122154B1A80154B1C700122154B45
:104DF0001A70E7E7144B104C1B685A1E9341134A74
:104E00000133D37706F0D6FF0121080001F0DEFD63
:104E10000121A3790E4A01330B40D5540D4B1D706F
:104E2000E4E7C046F01A00202418002025180020CE
:104E300022180020AF1800202C1B0020CA180020C8
:104E40007A000020D41800201C180020301B0020FD
:104E5000CF180020EC18002010B50120FFF794FFB8
:104E600010BD000070B5264B1B78002B1DD1254CC2
:104E70002378002B19D00125234B1D7012280CD14B
:104E8000002A0AD1002908D0204B1D70204B1A702F
:104E9000204A1378002B01D1237070BD2D21013BD6
:104EA000DBB213701C4AD154F7E711281BD012282B
:104EB00004D00A281BD00020002303E0174B184819
:104EC0001B780078002A15D10029E6D101250F4C66
:104ED0002570002A11D1002900D00300114A9B003F
:104EE0009B589847D9E7104B10481B78E9E7104BBF
:104EF000187AE1E70029D0D0E8E70029EDD1CCE726
:104F00008D1C00203A180020C418002069180020C9
:104F1000B40000203B1800203C1800205A1B002041
:104F20005B1B0020180000205C1B00205D1B002084
:104F30002B1C00200022044B1A70044B01321A7003
:104F4000034B1A707047C046051B0020C118002093
:104F5000D41800200A4910B50A780A4B002A08D153
:104F60001A7D504242411A7501230B70FFF7E2FF90
:104F700010BD5A7D504242415A750023F5E7C046A4
:104F8000F71700202C1B00200B4970B50B780B4C39
:104F90000B4A0C48002B0AD1157D13752570547DE2
:104FA0000470012053750870FFF7C4FF70BD2378AB
:104FB000137503780020F5E7F6170020F517002099
:104FC0002C1B0020F41700200D4910B50A780D4B5A
:104FD000002A09D1D87D0C4A10703D22DA750123D0
:104FE0000B70FEF7BDF910BD1900084AFF31897A30
:104FF0001278914202D10022DA75F2E73D22FBE7F6
:105000009C1800202C1B00209A18002099180020C2
:1050100010B50F4A0F48937959424B410021DBB23A
:1050200093718B4200D048316C31521802600A4AA9
:105030001378002B03D101331370084A137000203A
:1050400005F0C0FC064B1A88064B1A8010BDC046FE
:105050002C1B0020201B0020EC180020D41800205E
:10506000DA460108EE180020F7B5664B664A009351
:105070001B780192002B3DD113785BB2002B0AD034
:10508000624B1B783833DBB2062B04D8604B1B789D
:10509000002B2FD0F7BD5F4F3B78012B1DD09A1E00
:1050A000012A03D85C4A1278002A37D1584A0124D1
:1050B00012785A4E002A03D03278002A30D00024C9
:1050C0003378574D002B00D08CE0002C00D089E0C5
:1050D0002B78002B65D12C70DCE7524A1278002A1D
:1050E000E4D0514A1278002AE0D100224D4B1A70C8
:1050F000494B1A70012005F065FC01224B4B1A70D8
:10510000019B1B785BB2002BC4D0494B1A7E502AFE
:10511000C0D8002A6DD101F025FDBBE7454AE1E783
:10512000012B27D019D9023B012BC8D8424B197843
:10513000394B00292DD041490978012929D11A700C
:105140003F4D2B78002BBAD0FEF765FF441E63421B
:105150005C41002364002B70B2E7354B9B7A002B37
:10516000ADD0374B1B78002BA9D00022344B022442
:105170001A70A5E7334908782A49002801D00A7037
:10518000EFE70A78002AECD10B70274B64321A70D3
:10519000E7E71A78002AD3D101321A70254B63321F
:1051A000CDE7234B9B7C002B95D03B78023B012B1A
:1051B00091D8FEF730FF01288DD11D4B9B7C002B31
:1051C00000D167E7A0238022DB0552009A621E4BC4
:1051D000EC3A1A800023009A1370012232701B4AA5
:1051E000137057E700232B70012C83D0022CE4D0DE
:1051F00050E719235343164A13800022154B1A70A7
:1052000048E7C0469E18002022180020AF18002052
:10521000B41800201A1B0020D2180020D11800203A
:105220009F180020D3180020A0180020A5180020E7
:105230002C1B0020A1180020B8180020B71800204F
:10524000B5180020B6180020DC180020D91800205E
:10525000CA1800207A000020194B10B51B78002BCB
:105260000FD0184A184B12781B7852B2002A1CD162
:10527000164A127D002A05D1032B02D0032004F028
:1052800041FD10BD124A1278002AF5D11149088853
:105290001149088011490A7011490A700121114A07
:1052A000117001210A4A1170E6E7094A1278002AB2
:1052B000E2D10D4908880D4908800D490A70F0E7D0
:1052C000B4180020221800206A1800202C1B00208F
:1052D000AE180020DE460108EE1800207E000020F7
:1052E000EC180020D4180020D4460108CA18002069
:1052F0007A000020034B10B51B78002B01D1FFF77B
:10530000ABFF10BDE4030020E121F8B5304C314A79
:10531000A3794901118059424B4100212E4A0500D1
:10532000D154A0238022DB0552009A612B4BFF3A17
:105330001A702B4B1B789B0701D5FEF711F8002341
:10534000284F294EFB56002B24D1237D002B28D13A
:10535000230068331B786A3421781B011943B0237A
:105360001B0219434820FEF7E9F8204B1B68333332
:10537000187805F00DFC280004F0C4FC022D23D1A0
:105380001B4B1B78012B02D0002008F0D9FF012312
:105390003370F8BD01F0AAFB0023FB56002BD7D1D8
:1053A000D3E7144B1A88144B1A800022134B1A703F
:1053B000637D934202D1124B01321A700022114BCD
:1053C0001A7001233370C3E701220F4B1A70DEE716
:1053D0002C1B0020E0180020CF180020D918002036
:1053E000131B002022180020D4180020201B0020AE
:1053F0008D1C0020DC460108EE1800207E000020F5
:10540000AD180020EC180020A51800201D4B10B589
:105410001878002809D11C4B1B78002B04D004F00D
:1054200071FC0122194B1A7010BD194B1A78194BD7
:105430001B78134359424B411749DBB209780029C5
:1054400005D0012A03D10020144B18700B00144919
:105450000978002912D01349097801290ED1023A9E
:10546000012A0BD80022104B1A70104B04201B7815
:10547000002B00D00238FFF747FFD5E7002BF4D10F
:10548000D2E7C046B41800206A180020A5180020F2
:105490001A1B002022180020B6180020D318002064
:1054A000B8180020B7180020D2180020F01A0020E9
:1054B00070B51C00838B16005943026805008818DC
:1054C000190004F0FFF9A04206D8B04203D2A98B1C
:1054D000601A04F0F7F970BD3000FCE7030010B566
:1054E00030331C78034AE40013195B68A258FFF7B5
:1054F000DFFF10BDF445010810B505F0ABFC01223B
:10550000044B1A70044B1B78002B01D0034B1A700C
:1055100010BDC046B0180020F01A0020C1180020AD
:10552000154B10B51B78002B03D1144B1B78002BA7
:105530000AD001F065FC0222114B1A700022114BB7
:105540001A70114B01321A701048114A0378114930
:10555000002B03D113780C7823430BD00023137056
:10556000022203700B70064B1A700B4B013A1A7033
:10557000054B1A7010BDC0463A1800203B18002099
:1055800069180020B4000020A5180020EA130020AC
:10559000D81800203C1C0020D4180020F0B5804B07
:1055A00085B01B7804000F000092002B76D00029F4
:1055B0006ED0102800D07FE0FDF7D2FE1024794D88
:1055C0002B78052B02D1002004F09CFB764B1A8827
:1055D000764B1A80764B0193764B1978002903D0CD
:1055E0001E224A43744B1A70002F67D1734E3378D2
:1055F000002B02D006F016F93770714E3378002B6D
:1056000003D006F02DF9002333706E4E3378002B53
:1056100013D06D4B1A68019B907FD979012306F056
:105620004DFB0023337003F025FC002805D1674BA8
:105630001A78002A01D101321A70654B1A780023BA
:105640009A4207D0634A12789A4203D1624B1B7880
:105650005A425341564A61490192127B09781A43D2
:10566000002965D0002A02D02A78012A67D1092CA6
:1056700002D90F2C00D0C9E0594B1B78002B00D168
:1056800071E1002F18D0009B002B15D1022062E0A1
:10569000FDF766FE102C91D0132490E70D288ED1D3
:1056A000FDF7E8FD051E8AD1414BDB7D002B86D03E
:1056B000FDF756FE4B4B1D7005B0F0BD07F060FEC8
:1056C000454E102C03D1484B1B78DB0727D5337888
:1056D000012B04D1132804D01538012801D9FDF776
:1056E0003FFE0D2C1BD1009B002B18D03F480378A8
:1056F000002B09D0142200210DF06AFC00223C4B43
:105700001A703C4B01321A70FFF70AFF3A4B1B78B4
:10571000002B01D0FFF7ACFA0022384B1A60337827
:10572000012B00D089E7364A364B12781A8084E77D
:10573000002A9CD02A78012A99D0102C69D00D2CEF
:105740000CD1002FB8D0002B00D134E20120214B26
:105750001870284B187003F009FEADE70F2C0FD11D
:10576000002FA9D0009B002B00D085E7022003F07A
:10577000FDFD0422244B1A7001221E4B1A709BE778
:105780002300113B012B00D8EDE00A2C00D00FE2E2
:10579000009B002B00D0E6E0002FE7D08CE7C0464E
:1057A000121B00206A180020D0460108800000204B
:1057B0002C1B0020551B0020D7180020FC170020B0
:1057C000FB170020FA170020241B0020C01800201F
:1057D00073180020721800208D1C00200D1B002063
:1057E000CC18002069180020131B00202518002069
:1057F00024180020A5180020F01A00201C180020F2
:10580000EE460108C6180020C2180020102C00D057
:10581000A9E0CA4A1378002B04D0009B002F01D1C5
:1058200001231770C64A1178002908D0102C01D026
:105830000D2C04D1002101201170C2490870C24909
:10584000C24E0291002B0FD12B78012B00D0FFE02C
:10585000BF4B03931B78002B00D0BFE0102C00D06F
:1058600083E0380001F08CFB3078002803D003F08F
:105870007DFD00233370B74CB74E2378002B09D041
:10588000B64AB74B12781A8002F0BEFA0123337081
:1058900000232370B34C2378002B0AD0009B002BED
:1058A00000D008E105F0DCFF002301222370A54BA6
:1058B0001A70AD4B1A78002A07D000221A70009B8C
:1058C000934200D0FBE005F0ADFFA84DA84C2B782B
:1058D000002B19D0009B002B00D0F4E0002F00D04B
:1058E000F1E0A44B01991A68C9792B78907F06F0F2
:1058F000E5F903F0BFFA002804D12378002B01D189
:105900000133237000232B7021789B4D002900D197
:10591000EEE09A4F3B78002B00D1E6E0002004F047
:10592000DBFD0120217804F0D7FD029B1B78FF2BC3
:1059300002D10023029A137001232B7000232370DD
:105940003B7004F08FFF012005F03CF800228C4BE7
:105950002A701A705A708B4B1B78934200D1CBE09F
:10596000FFF786F9C8E0884A54E7FE25112C06D0D7
:10597000200001F035FA0500FF2800D174E7002F60
:105980000CD1A0238022DB0552009A627F4B3800A5
:105990001F70FEF76DF9FEF733F865E7009B002BEB
:1059A00000D061E7019B64331B78002B07D0A02354
:1059B0008022DB0552009A61744BFF3A1A70FEF7A1
:1059C0001FF8019B64331878FE2D03D17049FEF750
:1059D0003BFA49E72900FEF7FFFB45E7009A002A5A
:1059E00000D0A4E0002F00D13EE7A02280210025B6
:1059F000D20549009162654A157002229343012B3A
:105A000001D105F027FA039B05201D70FFF782F8EE
:105A1000012004F0D7FF5F4B1B78012B01D0029BC4
:105A20001D70019B2D33187800280CD104F06AF901
:105A30000123424A102C04D0009A002A00D013E718
:105A4000514A137010E70A224243534B1A70EFE792
:105A500023001278113BDBB2002A0BD0012B0BD8AC
:105A60004C4A4E4B127892009B5839002000009A05
:105A70009847F9E6012B06D9464B1B78FF2B02D03D
:105A8000464A9B00F0E703F0F5F9002809D1414BA5
:105A90001B78032B05D039002000009AFFF7E2F9AC
:105AA000E2E6009B002B00D0DEE6002F00D1DBE613
:105AB00002333370D8E60122394B1A70F4E6012222
:105AC000384B1A7001E707F05BFC002800D008E7AC
:105AD0002A78354B511E8A411A70029B1B78FF2B86
:105AE00000D00FE7029B18700CE7019BD8791AE7EA
:105AF0002B78002B00D024E73378002B07D000232D
:105B0000164A33701278164B1A8002F043FC274C69
:105B10002378002B03D005F0E9F800232370029BC3
:105B2000187808F00DFCFF23029A137024E6032B6B
:105B300000D099E6002F00D096E656E7C318002063
:105B4000EA130020D4180020B400002069180020B7
:105B5000C8180020BA180020B9180020EE46010825
:105B6000C6180020BC180020BE180020BD18002058
:105B7000C0180020241B0020C1180020BF180020DE
:105B8000CF180020F01A0020C4180020D9180020D7
:105B9000D60600008D1C0020D618002068000020CA
:105BA000FB170020FC170020FA170020BB1800206C
:105BB000002F00D180E5009B002B00D07CE5D5E5CF
:105BC000F7B5012009F054FB002802D0012009F0AC
:105BD00011FCB24C2378012B00D087E0B04E337813
:105BE000002B37D1AF4B1B78002B33D1AE4B1A783B
:105BF000002A03D1AB4A1278002A77D000221A700B
:105C0000AA4B1A88AA4B002A02D1DA7D3D2A03D179
:105C1000FF33987AFDF734FBC8220025A54B92008C
:105C200035701A80A44B1B78AB4208D0A34E337852
:105C3000012B00D0EFE002333370FEF7C1FEFFF717
:105C40005BFC082003F092FB042005F029F808F023
:105C500069FB4BE09A4F9B4D3B78012B0ED9944B3F
:105C60002A68D97D002927D1002A01D0FA2A05D136
:105C70008023954A9B0151694B4053612B683A78C8
:105C800001332B60032A26D1894AD27D002A20D0F5
:105C90008E4A934226D900232B60FDF7B1FE0123E3
:105CA000844D1A0028881E2180B2FEF701F82B8847
:105CB00064339BB22B8015E0002A04D1FF33987A1D
:105CC000FDF7DEFADAE782498A42D7D1FF33587A04
:105CD000F6E7804ADDE780498B4203D900232B6039
:105CE000012ADAD02378012B00D17FE77B4B1B7888
:105CF000002B00D08EE02378012B03D0784A9B0044
:105D00009B58984703F0B6F800280ED1754B1B78C6
:105D10005BB2002B09D0744B1B78002B05D0734B62
:105D20001B78002B01D100F0ABFE03F0A3F8002894
:105D300026D15F4B1B7D002B22D06D4D2B78002B85
:105D40001ED0684B1B785BB2002B19D1674B1B78B8
:105D5000002B15D12378052B12D0FFF759F9654E8A
:105D60003378002B05D0644B1878002801D108F057
:105D7000E7FA0023614A33701370614A2B70137085
:105D8000604D2B78002B1BD0584B1B78002B11D16A
:105D90005D4B1B78002B0DD1454B9B7D002B09D013
:105DA0005A4B1B78002B05D14E4B534A1B78127867
:105DB00013433FD0564B1A88564B1A8000232B7042
:105DC000554B01931B78002B24D02378052B21D130
:105DD000524E374F3378524C002B2FD0FDF73AFFFD
:105DE0003B7D002B0CD03F4B1B785BB2002B07D1C7
:105DF000464B1D78002D03D1FFF70AF9494B1D7062
:105E000003F08AFE484B1B88238000233370002355
:105E1000019A1370F7BD022B00D00EE72A0029006B
:105E20001020FFF7BBFB0122304B35701D703F4B3C
:105E30001A7002E7052003F065FFBFE73B7D394D8F
:105E4000002B0BD0274B1B785BB2002B06D12F4BBE
:105E50001B78002B02D12B78002B16D0344BBA7D47
:105E60001B78002B0FD0C823534323800123002429
:105E700033702C70FDF7FEFDFDF758FE2100200069
:105E8000FDF7B4FCC3E70A23EEE7FFF7C1F8264BA2
:105E90001B88238001232B70B9E7C0466A180020B5
:105EA000E2180020EB180020E6180020E202002093
:105EB0002C1B00207C000020081B002098180020CC
:105EC000101B002094180020000800501021010031
:105ED000983A000098340100E0280100CE18002014
:105EE000B8370108221800207A000020AB180020E3
:105EF0007E000020AD1800208D1C002020180020FE
:105F0000AE180020F0180020AC180020CC1800209B
:105F1000D046010880000020F1180020E403002092
:105F20006C180020F9170020CE460108C418002084
:105F3000121B0020F0B50024BA4B85B01C70BA4B80
:105F4000200002931B88029A01339BB2138009F050
:105F50008FF9A04202D0200009F04CFAB34B1B7815
:105F6000002B00D001E1B24B01931B78052B03D12C
:105F7000B04B1B78002B17D102F07CFF01260028C4
:105F800000D1E3E0019B1B78012B0DD1AA4B1B78BC
:105F9000002B09D0029B1A88A84B5343A84A9BB2F6
:105FA000934201D806F0EAF9A64CA74D23782E7843
:105FB000002B00D137E20023237008F0B3F9002E44
:105FC00001D008F06BF800200BF0DCFB019B1E7881
:105FD000012E0CD19D4B1878002808D00138C0B292
:105FE0001870002803D103F08DFE2E70267003F088
:105FF000D7F8974C2378032B00D1AEE08022954B45
:1060000095491878D200954B002800D183E10869A2
:10601000104200D0B9E0924A9248127804782243A4
:1060200000D0B2E019780131C9B21970022900D844
:10603000C2E08D491A700A7001218C4B01701970F1
:106040001020FFF7ABFAB7E000210220FDF776FA47
:106050000220FDF7FDF908230404240E05001C426C
:1060600026D0FDF7CAFF00F0BBFE0390FF281FD02B
:10607000019B1B78012B1BD07D4B1B78002B17D06D
:106080007C4F3800FCF712FE0200132804D13800C0
:1060900079490CF08BFF1222039BBB540023BF18DD
:1060A000764A7B701278764B1A700122654B1A7013
:1060B000630701D5734B1E70344205D0724B1E70BE
:1060C000FDF7A2FF714B1870A30702D500226E4B9B
:1060D0001A70EFB26B0601D56D4B1E702D0602D5FE
:1060E00000226B4B1A707B0709D56A4B01210520F2
:1060F0001E70FDF77BFBE122674B52011A800823DB
:106100001F4205D00021634B05201970FDF76EFB7F
:10611000E4061BD54E4B1B78032B17D15F4B1B7826
:10612000012B13D15E4B1B78002B0FD104255D4B47
:106130005F201C78013D621C1A70FDF789F95A4BEB
:1061400064001853002DF2D109F076FB0C20FDF706
:106150007FF9304200D077E714E7504D2B78012BC0
:1061600005D02B78002B00D148E705B0F0BD4C4B93
:106170001B78012BF9D109F005FB002801D108F0AB
:10618000D1F82378032BECD038E70A69520503D401
:10619000334A1278002A2CD032480278012A28D1BA
:1061A0001A780132D2B21A70022A03D82C4B1B780B
:1061B000002B01D002230370FEF7B8FA0400132865
:1061C00002D00022284B1A70384E394D33789C4249
:1061D00000D1D9E0132B08D0132C06D0354B002169
:1061E0001A78354B1878FFF7D9F9002334702B80D3
:1061F000BBE780220869D20010425FD1184C20789A
:1062000000285BD117480578022D57D11A78013242
:10621000D2B21A70022A02D82378002BCCD00323E2
:10622000C9E7C046A2180020B2180020CE180020EE
:106230006A180020E4030020F31A0020EFEEFFFFAD
:1062400011110000A5180020D4180020D618002035
:106250008D1C0020081B002000040050AA180020FC
:10626000EB180020981800209D180020AB18002083
:10627000F21A00202518002026180020EB460108FD
:1062800024180020B5180020B8180020B7180020E6
:10629000B6180020B4180020E01800206222002068
:1062A0005C220020A61800201422002009000020F3
:1062B000EC130020AC1800200800002009691142EE
:1062C00003D15B4A1278002A22D05A4C2278032A42
:1062D0001ED11A780132D2B21A70022A04D8544B55
:1062E0001B78002B00D167E7002210201100FFF778
:1062F00055F90022504B1A70504B1B78132B02D0CB
:106300004F4B01321A7000232370FEF759FB53E7FD
:1063100000221A7050E7484C0969207800281FD0E5
:10632000114203D1424A1278002AF1D01A78013280
:10633000D2B21A70022A04D83D4B1B78002B00D130
:106340003AE7002210201100FFF728F900232370FC
:106350003A4B1B78132BD8D00122394B1A70D4E753
:106360001142D5D1324A1178CAB20029D0D1197858
:106370000131C9B21970022900D81DE731491A70DC
:106380000A70012121705BE628882F4B01301B88A1
:1063900080B22880834215D1284D2C4E132C0AD16F
:1063A0002878132804D000213278FFF7F7F82C70F2
:1063B00000233370D9E60022012120002C70FFF762
:1063C000EDF8F5E7224B1E88B04200D2CDE6132C43
:1063D00000D1CAE6B0420AD1102C00D1C5E6012195
:1063E0001A4B0A0020001970FFF7D8F8BDE6230009
:1063F0000B3BDBB2012B0ED80127144B1F70154B42
:106400001988FCF70BFB89B2002904D13A00390046
:106410002000FFF7C3F82A880F4B9A4200D0A4E669
:1064200001362E80A1E6002E00D1CFE5C9E5C04699
:10643000EB18002098180020AB180020080000205E
:10644000C41800209D180020E4460108AC18002064
:10645000E8460108E6460108FFFF00000022F0B50B
:10646000804B85B01A70804A1378002B07D0013B0F
:10647000DBB21370002B02D101227C4B1A707C4AD4
:106480001378002B1AD0013BDBB21370002B15D10F
:10649000784B1B689B7FC72B0ED8774B1B78013B33
:1064A000012B09D801F05CF8744B1878022801D14F
:1064B00002F05CFF05F0B6F9FFF732F8704B19787F
:1064C000002914D06F4A1278052A01D0002A0ED173
:1064D0000139C9B21970002909D16B480378002B22
:1064E00005D014220CF074FD0122604B1A70674B2A
:1064F00001931B88002B00D07FE00023644E0293A1
:106500003388002B13D0634B1B78002B0FD1624BC9
:106510001B78002B0BD1614B1B78012B00D17AE04B
:106520003388013B9BB23380002B00D17DE0782380
:106530005B4F5C4C397822884B435B4D9A4210D1BB
:106540002B78002B0DD0FEF729FA00210620FDF74D
:106550004DF90A22554B9B7D5343554A1380002326
:106560002B70544B03931B78012B75D003F0C8FAA2
:10657000002871D1494B1B78032B6DD0208800284F
:106580005BD0013880B22080002856D10122484BD0
:1065900030801A802A70FCF773FEFEF7A9FA2B7878
:1065A000002B0BD00322444B0620197801311140F7
:1065B00019704B425941C9B2FDF718F93F4B1B788E
:1065C000002B00D188E03E4C3E4D2100280003F016
:1065D000ADF8FA2322885B009A4205D83A4BDA8854
:1065E0002B889A4200D30EE1BFF34F8F374B384AC6
:1065F000DA60BFF34F8FC046FDE7019A013B9BB2C3
:106600001380002B00D078E7244B1B78013B5A42C3
:106610005341DBB272E706F0B3FE132887D006F0D1
:10662000AFFE162800D07BE781E7204BDB7D3C2BBB
:1066300000D97CE7FCF782FE79E723885A1E132AEB
:10664000ADD83A78002AAAD000209B0701D1214B6F
:10665000987AFCF715FEA2E778223B785343238013
:106660009DE7C046EA180020C2180020A5180020A7
:10667000D8180020241B00203C1C00206918002092
:1066800024180020581C002025180020C6180020BF
:10669000E20200208B1C0020CC1800208D1C002062
:1066A00084000020DE020020121B00202C1B002092
:1066B0006C1800206A180020F8170020CE1800205F
:1066C00082180020841800208618002000ED00E0C9
:1066D0000400FA052B1C00204C4C039A23881278E6
:1066E00001339BB22380012A15D001221E001640DF
:1066F000134210D1464D47492878831890402B709B
:10670000454BC01803F012F82B78032B00D92E70DC
:10671000012003F097FB23889B070AD13F4B1B788E
:10672000002B03D13E4B1B78002B02D001223D4BA6
:106730001A703D4B1B78002B4FD13C4B1B785BB242
:10674000002B4AD102F096FB002846D1384B18782E
:10675000032842D0374B384A1B78002B12D03749D8
:106760000B78002B0ED0364C2478002C0AD101284F
:1067700008D0013BDBB20B70002B03D12949013358
:1067800013730B70029B002B27D0002301990B8001
:10679000D37D002B01D1FCF7D1FD2A4C2378002BAF
:1067A00003D1274B1B78002B02D0022002F0DEFD24
:1067B00000F026FB0023244A23701370234A137031
:1067C000234A13700122174B1A70224B1A7002F0E1
:1067D00051FB002801D107F0B3FD1F4B1B78002BA4
:1067E0000BD11E4B1A78002A07D018780138C0B296
:1067F0001870002801D104F053FA03F0CDFB02F029
:1068000091FD05F019FF05B0F0BDC04670180020DD
:10681000CD180020821800207A180020751800205A
:10682000F11A0020D4180020CC18002022180020D3
:106830008D1C0020551B00202C1B0020D718002089
:106840003A1800203C1C0020EA1300208B1C00207A
:106850008A1C0020A5180020AB180020DA180020A0
:10686000F0B53B4D85B06A7E531ED9B2022929D8B6
:10687000EB18997E5E7F0133DC7F0191354B0293EB
:106880001B780393019B002B0CD0334F3B78009374
:10689000002B1DD0012B4AD003233B702F4B029AB3
:1068A0001B68137000212E4B029A595610786B7E8C
:1068B00040180122C0B203F0C3FCFF2800D1002021
:1068C000C4B213E001260123764234000193D5E7D8
:1068D000224B03991960731C29D00099B0B203F0C0
:1068E0006DFC002823D0009BF4B23B70194B1C7048
:1068F000039BA3420CD0A87902212B181C712C54A5
:1069000003F0EAFD012004F05DF80122154B1A7036
:106910000922154B1A80019B002B06D00E4A1378D2
:106920000133DBB2032B10D8137005B0F0BD084B58
:106930005A7E631CB0D00021A0B203F03FFC0028B7
:10694000AAD00123E4B23B70D0E70023ECE7C046B5
:106950002C1B0020AF180020141800200018002065
:1069600022180020A5180020CA180020002170B5A8
:10697000104B114C1A68114B25685956002A15D036
:106980000F4B28001B68FEF793FD2860206803F07A
:1069900095FD206803F072FC012004F013F8092231
:1069A000084B1A80084B083A1A7070BD2800FEF791
:1069B00095FDEAE71C180020201B0020221800206B
:1069C00018180020CA180020A518002070B504006F
:1069D0000D00002807D01B4A1B4B517D1970002366
:1069E00053751A4A137003F03DFF0020184B194AE3
:1069F00019688B7F1370184A1070184A1570184D5B
:106A0000C72B15D8844202D0164A2B601360FFF7BB
:106A100027FF2A68144B1A60144B1A88144B1A80EB
:106A20000023144A1370144A1370144A137070BD73
:106A3000002C03D00B680B4A2B601360FFF796FF06
:106A4000E7E7C0462C1B00200C180020211800206E
:106A5000201B0020AF18002014180020221800204E
:106A6000081800201018002004180020D64601083D
:106A7000CA1800207A000020AE180020201800203C
:106A800010B5134B134A1B7812783833DBB2032A44
:106A900015D1062B03D9104B1B78002B14D10F4BAB
:106AA00004201B78002B00D00238FEF72DFC0023B9
:106AB0000B4A13700B4A13700B4A137010BD062B50
:106AC00002D8FFF753FFF2E7FFF7CAFEEFE7C04631
:106AD000AF1800206A1800201A1B0020F01A0020AE
:106AE00020180020AE1800207A000020144B1B7ED6
:106AF000502B20D913490A78002A0AD1124A503B58
:106B00001288534305225343104A9BB2138001233A
:106B10000B7000220E4B1A700E4A0F4B1168196051
:106B20000E4B19688B7FC72B00D90B6813600122AD
:106B30000B4B1A7070470022044B1A80E9E7C046DD
:106B40002C1B002020180020D2460108CA18002063
:106B50007A0000200818002004180020201B0020C4
:106B600021180020F8B5224B224C1A78002A02D0B6
:106B7000627500221A7000221F4B1A701F4B1F688B
:106B80001F4B3D001B78934201D01E4B1D681E4BCE
:106B90001B78C72B1AD8A079EBB2221802211371E7
:106BA000235403F099FCBD4204D004F03BFE0122C3
:106BB000164B1A7000230434E37705F0FBF801202C
:106BC00003F000FF0122124B1A70F8BD114E30681D
:106BD000056003F073FC306803F050FBBD42E9D060
:106BE00032680123A179907F05F068F8E2E7C0469A
:106BF0000C1800202C1B0020221800201018002048
:106C00002118002008180020AF180020D4180020F8
:106C1000A5180020201B0020074B1B78012B0AD051
:106C2000064B1B78012B06D0012205490B7B5340F4
:106C30000B73044B1A7070478D1C00206A180020DB
:106C40002C1B0020BC18002000220E4B1A600123D0
:106C50000D4AD1794B40517DD371002901D0591C87
:106C60005175117D002901D0013313750123074AA5
:106C70001370074A1370074A13700022064B1A70EC
:106C80007047C0461C1800202C1B0020BC18002098
:106C9000C11800207E000020B400002010B50F4C69
:106CA000E37C002B0ED00E4BE2791B68997FA31872
:106CB000C72908D89B78A35401220A4B1A700A4BA3
:106CC00092181A7010BD1879002301211A0003F0E0
:106CD000B7FAFF28F6D0E379E054EDE72C1B00204B
:106CE000241B0020BE180020C018002037B5224CFD
:106CF000236831331B78042B06D1204B1C22FA2148
:106D00001B781F48FCF7D4FF236831331B78023B04
:106D1000012B2CD8194B1B4C1B781B4D002B09D079
:106D2000A0238022DB0552009A6101233C202B70B6
:106D3000FDF7F0FE230064331878FDF703F8210017
:106D400023002200623109885E335C321B8812887E
:106D50006034019121880D4800910021FDF746F82B
:106D6000A0238022DB0552009A6200232B700120B1
:106D7000FCF77EFF37BDC0461C1B0020901B002087
:106D8000AB0900002C1B0020D9180020731B002029
:106D900030B502780300013AD2B20020FD2A0CD8A7
:106DA00001240E4D59188B4206D01A78501EC0B2DD
:106DB000FD2803D900221A70012030BD232A09D0F2
:106DC0002A3AD2B21A2A07D82800D040020020401E
:106DD0002242F2D00133E6E70020EEE7C1FF800750
:106DE000092802D83030C0B2704703000A3BFF20A8
:106DF000052BF9D8014AD05CF6E7C046D437010824
:106E00000F2210B5002104480CF0E2F80022034BD9
:106E10001A70034B1A7010BD3C1800203B1800205C
:106E20003A180020F8B50A4F06003C78002C0BD128
:106E3000084D0E222D2128000CF0CAF8AC73631CFB
:106E40003B70044B1E5501E00D2CF8D9F8BDC0462F
:106E50003B1800203C18002073B5264A1378012BFC
:106E60000CD0254B1B6831331978042940D81523E1
:106E7000CB40DB073CD50023137073BD1F4D0023AF
:106E800013701F4B1F4C1B88181CC72B00D8C82021
:106E9000230064331B781C4E80B2002B06D0A02345
:106EA0008022DB0552009A6101233370FDF732FE28
:106EB000230064331878FCF745FF210023002200EB
:106EC000623109885E335C321B881288603401911C
:106ED0002188280000910121FCF788FFA02380224F
:106EE0000020DB0552009A623070FCF7C1FEC4E757
:106EF000064DC4E7231800201C1B00204B1800205F
:106F0000861B00202C1B0020D9180020611B0020AC
:106F100010B5144B1B78002B07D000290FD1002887
:106F20000DD00222104B1A7009E0002903D100286D
:106F300006D00D4B13E0002801D0FFF76DFE10BD09
:106F40000A4B1B78002BFAD1094A013311784B40C8
:106F5000137003D0074A084B12781A70074B0122AE
:106F6000E1E7C0463C1C0020691800208D1C002071
:106F7000EA130020EA460108D8180020D41800209F
:106F8000002370B5404C2370984203D03F4B1B78D0
:106F9000002B21D03E4B1B78012B11D13D4D2B787E
:106FA000002B0ED0002002F0ADFE002420002C703B
:106FB00003F076FE384B1B78012B01D0374B1C7049
:106FC00070BDFEF799FA364B19780029EAD00A22EB
:106FD0004A43344B1A70E8E701F04CFF002807D011
:106FE00001F058FF304B1B78002B25D02F4B21E0B0
:106FF0002F4B1B785BB2002B02D0FFF7B3FDF1E7FC
:10700000234B1B78012B05D1264B1B78002B01D17C
:107010002370D5E7204B1B78012B02D000221F4B99
:107020001A702449244B09781A78002913D1002AB0
:1070300018D1224B01221A700022214B1A70164BD4
:107040001B78012B01D0154B1A7001221D4B1A70B1
:107050001D4B1A70B4E7002A04D11C4A1278002A8A
:107060000ED01A701B781A490E2B01D80022CA5470
:10707000164A184813700BF0B3FF0122164B1A7012
:10708000FFF7BEFED5E7C0463C1C0020EB180020F1
:107090006A180020B01800208D1C0020B4000020C9
:1070A000591B0020D6180020AB180020C318002060
:1070B000221800203A1800203B180020BB1800209E
:1070C000AA180020D4180020A51800203918002084
:1070D0003C1800204B18002023180020F0B5BB4BB3
:1070E000BB4CBC4A1B7885B0E6790D000392012B9E
:1070F00004D10223039A137005B0F0BD0127039B4E
:107100001F70122800D95DE1FBF7EEFBF6FF1300BC
:1071100084008E009600A6000401F6FF070111010D
:107120005C01240130015C015C015C015C015001E7
:107130003601A94B19688B7F3833DBB2062B3ED959
:107140000022A64B1A70A64B01321A70E37C002B6A
:10715000CFD0A44B1B78002BCBD1A34B1B785BB2B9
:10716000002B0BD0A14B1B78032BC5D1A04B1B7858
:10717000002BC1D09F4B1B88002BBDD0A35DC72B1C
:10718000BAD848237343E3181A009C3212788A3322
:10719000383AD2B2A2551A7003F064FB964C2068BC
:1071A00003F08CF9206803F069F8012003F00AFC71
:1071B0000123924A1370924A1370924A9BE70A0085
:1071C00030321378062B07D109698F480D68854244
:1071D00002D88E4B0B608FE70133DBB21370042BA8
:1071E00014D18B4B1B78002B01D10533137013780E
:1071F0000122383BDBB2A355A419A370804B1A704F
:10720000844B92181A70844B002223E0062BEED98F
:107210000023EBE77F4B1F70FFF716FD002D00D119
:107220006AE7039B1F7067E77A4B1F70FFF736FD15
:10723000002D00D05DE75FE70020684B1870627D8D
:10724000764B60751A700122654B1A7001F092FD41
:10725000714B02221A704FE7002902D009F08CFA14
:10726000D1E701F007FE002800D045E75A4B196826
:10727000887FC72823D90B69E1791B684A425141AD
:1072800048224A43664EA218D06E664A9D19664946
:10729000664C954202D88519954203D900230B60AC
:1072A000236026E70A68206055426A415242134033
:1072B0000B60984200D31FE7086023601CE75C4B1B
:1072C0001A5C002A01D01D5416E70E000A000F00B8
:1072D0002E362F32337814785B00A4002D372343E9
:1072E0003C782343DBB2062B01D80133DDB2012405
:1072F0002B0023403B706B082340AD0833701570A2
:1073000023002200009404F077FC424B1C70494B90
:107310001C70F1E6FDF740FCEEE601212E4B1B68E8
:107320002A331A784A401A70344B1970E4E6270061
:10733000002234371100387802F040FF002800D1D5
:1073400076E73B78A21913710122A3552C4B1A70D2
:10735000304B7EE7A27A131C082A00D90823013398
:10736000A37201222B4B1A701C4B4DE7A37A002B02
:10737000F6D0013BDBB2F3E7174C23680733D87F25
:1073800002F068FAC0B2162806D825680130C0B2EB
:1073900002F05AFA0735E87723689B7F3833DBB26F
:1073A000062BDED80122154B1A70DAE70A4C236847
:1073B0000733D87F02F04EFAC0B20028ECD025681F
:1073C0000138E4E7064B1F70CEE7C0468D1C002055
:1073D0002C1B002069180020241B0020EA13002029
:1073E000D4180020CC180020221800206A18002091
:1073F000AE180020CA180020201B0020BD18002055
:10740000BE180020A5180020FFE0F50500E1F505F5
:10741000161B0020C0180020B4000020A81800206F
:10742000806967FF80AF2A231C18002018180020ED
:10743000F2180020BF18002070B52A4C0E00E37926
:107440001100E55C284B1B78002E02D1002821D1C9
:1074500070BD002BFCD10028FAD00022234B9A5695
:10746000002A33D12B003833DBB2062B1CD8204D39
:107470002868FEF733F8040002F028FB00280BDB35
:107480002B6820001C60FCF737FAFCF763FA012236
:10749000184B03E0002B03D0174B02221A70D7E7DA
:1074A0000122154B1A70D8E768181300C0B202F019
:1074B000C7FEFF28CCD08542CAD0E379E21810710C
:1074C0000122E0540D4B1A700D4BE6E70020FFF748
:1074D0007DFA012200210B4B1A800B4B19700B4BCC
:1074E000DCE7C0462C1B00203C1C0020221800209A
:1074F000241B0020BD18002069180020BE180020A1
:10750000C0180020CA1800207A000020C4180020EB
:10751000002270B50E4D11000400EE7902F04EFE0F
:10752000002807D10B4B1B78012B02D802220A4BF3
:107530001A7070BD00220221074BE4B21A70AB1919
:107540001C71064BAC551970E87902F0C5FFF0E7E5
:107550002C1B0020D818002069180020C01800201B
:1075600070B5154B1B689B7FC72B17D800220A25C7
:107570001300124C124E2178D0B281420FD8002B4A
:1075800013D103290AD100220121013B22700D4AA7
:1075900098B21170FFF7BCFF04F044F970BD6B4363
:1075A000B05C01321B189BB2E6E7581E80B203297B
:1075B000E9D0FFF7ADFFF1E7241B00203C1C0020C1
:1075C000461C0020D8180020F0B5B84F05003B78C5
:1075D0000C00160085B0002B19D0002900D131E233
:1075E000002A00D05DE2FFF7FBFBFF2800D140E25C
:1075F000FFF718FCAE4AAF4B12781A700122AE4B5F
:107600001E70AE4B1A70AE4B1A7005B0F0BD12284A
:1076100000D9C4E1FBF772F9130013001300130043
:10762000130013001300130013001300DD003301D7
:1076300041017C01BA01FB01000213001300002E7E
:1076400016D0002CE1D09F4B1B78002BDDD19E4A39
:107650001178002902D01370974A1370002101227B
:107660009A4B19709A4B1A702800FFF737FDCCE738
:10767000002C02D0924B0122C6E7944B1A78002AC4
:1076800000D097E0934B1B785BB2002B06D0052D02
:10769000BBD8914B5D7604F08DFBB6E78E4E28008B
:1076A000F379019304F0F2FD814B824F1D783D7018
:1076B000FFF756FF804B1C70884C2268937FC72BC6
:1076C00002D8AD083D70A0E73833DBB2062B00D9F5
:1076D0006BE113691A68824B93429B415B4206330C
:1076E0000293794B03931B78002B00D18DE7029A0C
:1076F00093424ED12D093D7004F0E0FD039B1D78AF
:1077000002F030FD002102000A20029B5B1BDBB26D
:107710008B4244D16420734B50431D68724A5768B2
:10772000A8420AD3B8423ED3704A1568A8423AD25A
:10773000EB195B08984200D23D00280002F098F84F
:10774000236830331A7882420DD0C0B21870019B82
:107750003838C0B2F054F318987004F063F802217E
:10776000019802F0B9FE23682800998B02F0AAF86C
:10777000B8420AD35D4B1B68984206D2DA19520808
:10778000904215D22368988B381A23681860584B9A
:1077900071E728000321FBF7BBF8C5B2ABE7013165
:1077A0004243C9B2B4E75D6B8542C6D90500C4E760
:1077B0001800EAE701211C70454B1970082D02D111
:1077C000FDF702FC21E7092D00D04DE7FDF718FA7F
:1077D0001BE7002921D0002E00D14BE73D4B1B7841
:1077E0005BB2002B2ED002F08BF9002804D1414B64
:1077F0001B88092B00D808E7384B3F4A1B68997F44
:10780000012353543D4A13703D4A13703D4A3E4B89
:1078100012681A60FFF734F9F7E6002E00D0F4E69C
:107820003B78002B00D0F0E6274B1A781E70002A18
:1078300000D089E0274B1B785BB2002B1AD0FFF7F2
:1078400091F9E2E6214A13701E4B1B78002B00D001
:10785000DBE61D490878002802D00B7016490B7032
:107860000023012113701A4B0A000A201970FDF73A
:10787000F9FACAE60122254B1A700F4BC4E6134BE6
:107880001B78002B02D000210C20EEE60122524290
:1078900031002000FFF7D0FDB7E60C4B01221B782A
:1078A000002BF5D000210B20DFE6C0463A1800205F
:1078B000EA460108D8180020B4000020C4180020AF
:1078C000691800208D1C00203C1C0020EA130020B9
:1078D000D4180020221800202C1B0020241B00207C
:1078E000FFE0F505F4450108344601082C4601087F
:1078F000BD180020CA180020F2180020C01800206F
:10790000BF1800200418002008180020B918002013
:10791000002E22D1002C00D177E601226D4B1A7087
:107920006D4B1B785BB2002B11D16C4A1378002B86
:1079300000D16AE60A21013BDBB21370684AD154D8
:10794000684A694B12781A700022684B5CE6002284
:10795000674B1A70FFF706F9F6E7002C00D154E6E2
:107960005E4D644A2B7811780B4303D13B78002B92
:1079700000D14AE600246048147021000F223C70B8
:107980000BF026FB594B2C701C7073E65B4B1B787D
:10799000012B00D139E6514B1B78002B08D0002E6B
:1079A00000D032E6002C00D12FE60222494B2BE614
:1079B000002E09D0524B1878002831D1002C00D16C
:1079C00023E6FDF7E1F955E6002C00D01DE64C4B0F
:1079D0001B78002B27D100223F4B9A563D4B002AA3
:1079E0002DD1484A1268002A29D101250E32464875
:1079F00041491D700BF0FCFA3E4B3A4A1C7012785C
:107A0000394B3D701A70394B1C70404B33E63100D6
:107A10002000FFF77DFAF8E52000FFF7B1FAF4E562
:107A2000002C00D0F1E50021354B394A1970507D0A
:107A3000384B51751870012001F09CF92B4B022234
:107A40001A70E2E71228AAD8FAF74EFFF9FDF9FDFD
:107A5000F9FDF9FDF9FDF9FDF9FDF9FDF9FDF9FD76
:107A6000E7FE19FF27FF62FFA0FFE1FFE6FFF9FD38
:107A7000F9FD122D99D82800FAF736FFFAFDFAFD24
:107A8000FAFDFAFDFAFDFAFDFAFDFAFDFAFDFAFD3E
:107A9000FCFD01FF0FFF4CFF88FFC9FFCEFFFAFD81
:107AA000FAFD122800D9B0E5FAF71EFFCBFDCBFD99
:107AB000CBFDCBFDCBFDCBFDCBFDCBFDCBFDCBFD86
:107AC00095FEE9FEF7FE5AFF70FFB1FFB6FFCBFD52
:107AD000CBFDC04669180020221800203C1C002065
:107AE000461C0020EA460108D8180020B4000020F7
:107AF000211800203B1800204B1800206A18002095
:107B0000EA1300201C1800203C180020D418002084
:107B10002C1B0020A818002010B5012001F02AF924
:107B20000123034A1370034A1370034A137010BDF4
:107B3000D4180020CC180020B40000200022044BF0
:107B40001A70044B01321A70034B1A707047C0460A
:107B5000CC180020A5180020D4180020002300B560
:107B60000B60482863D8FAF7B5FE25293137393735
:107B70003933623D5A5A5A4444445C46622B5C2570
:107B80002D5C5A353B5A5A5A5A2F485A5C44464142
:107B900041416262485A4A5A48336233335A2F5A33
:107BA00056585A5C5C5E5A5A5A5A5A5A4E52525257
:107BB0005252480009230020136000BD1723FAE742
:107BC0003D23F8E701230B600A23F4E70723F2E7DC
:107BD0000223F0E76823EEE7D023ECE73223EAE75D
:107BE0002823E8E705230B60AE33E4E701235B427B
:107BF0000B60C723DFE70523DDE70423DBE703236F
:107C00000B606033D7E70B4B0B600B4BD3E70B4B91
:107C10001B78013BCFE77823CDE70623CBE7012391
:107C2000C9E70323C7E701230B600E33C3E7012035
:107C30004042C2E7DC050000AC0D0000234701080C
:107C4000F0B587B0140006000F0005F099FB0200A4
:107C50000F2832D15D4B1B78002B2ED05C4B1D685A
:107C6000002D2ADB002E26D0092D24DC594902A83C
:107C70000BF0BEF96A465848E4B2435DD61DE318DE
:107C8000DBB2190000222039C9B25E2903D91F2BAB
:107C90000AD87E230BE00132B75C9F4202D11B1948
:107CA000DBB2EEE70F2AF0D17E2B00D92023012290
:107CB00043554A4B1A7007B0F0BD002F30D1002E4B
:107CC000F9D00122464B1A70464B1F7001F0D2F8D2
:107CD000061EF0D13D4B414F1D78002D23D1424B64
:107CE000424E1B782A00013B3078614202F02AFAAA
:107CF00001223F4B30701A703A7005F041FB132897
:107D0000D9D005F03DFB1528D5D005F039FB162854
:107D1000D1D0384BDB7D002BCDD1FBF70FFBCAE771
:107D2000002ED3D1C7E705F02BFB082814D1324B26
:107D3000324D1B682868998B314B4C432018984270
:107D400003DC002802DA2F4800E0300001F0BAFD21
:107D5000286001233B70AEE705F012FB0F2829DCF9
:107D60000D2824DC05F00CFB02AAC0B201A9FFF724
:107D7000F5FE0028EDD1214D019A29681000029BE3
:107D8000914203DB18008B4200DD0800210002F065
:107D9000D9F9DDE70223194E2A00306821000019C5
:107DA000C0B202F04DFAFF28D3D03060D1E70025F1
:107DB0002B00F0E723380428D4D8FAF781FDF8D354
:107DC00003EB05000123E6E70323E4E7891C002019
:107DD0005C1C0020CF310108601C0020B400002092
:107DE000691800203C1C0020A9180020881C0020D5
:107DF000B91800202C1B0020241B0020841C00200C
:107E0000F5E0F505F6E0F50530B5AE4C8BB025682C
:107E100005F0B6FA04AAC0B203A9FFF79FFE002836
:107E200009D1A94B039A1968914201DA1A6002E05C
:107E3000049A9142FADC05F0A3FA482800D9C5E07B
:107E4000FAF75CFD49005000600068007F006600A2
:107E50007D008D009200160197009C005502A10044
:107E6000D001B3002001CB00C400D100EF00D90045
:107E7000E400F3000F011B0125012E0164016A01DA
:107E8000700177017B01830189018F019301C40097
:107E9000C400C400C400C400A50198019E01AC0147
:107EA000C301C701C400AA01CB01DE01E601FF0145
:107EB00028022A02300239023B023D023F024102FF
:107EC00043024502530247020A0215021502150237
:107ED0001502150211027C4A7C4B12689A727C4B87
:107EE000012286E0784B256818680735C0B201F09A
:107EF000ABFC2368E8779B7F3833DBB2062B65D871
:107F0000744B4FE0704A2368126828331A70F7E701
:107F1000256808356C4B1A68002A04D12B79012B8F
:107F200054D0AA80ECE7D3B2682A04DC0222013BD9
:107F30002A716B71E4E70322693B2A71F9E725682E
:107F40000835614B1B68002B04D12A79012A3DD1E9
:107F5000AB80D5E7013B6B7101232B71D0E75A4A07
:107F600023681268DA77CBE7574A236812689A6168
:107F7000C6E72368544A2C331268C7E72368524A7D
:107F800032331268C2E7504B1A682368D2B29A772C
:107F90004E4BD9795B181A7102224E4B1A704C4B1A
:107FA0001A704D4B01221A7010E04C4B0922190037
:107FB0002024587A0500A5430AD05F2808D0FF285E
:107FC00006D0414B1868C0B203F0F4FD0BB030BDD1
:107FD0005C72013B013AECD2F3E73B4A3B4B12683F
:107FE0009A753F4BDEE7384A384B1268DA75002243
:107FF0003C4B1A70F5E7344B3B4A1B68917A53723D
:108000000133994200DA19009172EAE72E4B364AA1
:108010001B68517A9372013B994200DD190051723D
:10802000DFE7324B284A1268E3E7274B27481C68F2
:108030000123C27923400132D2B25343DBB2002183
:108040000375A40700D5111C294A41751370294BEB
:10805000294A197001231370284A1370284A137093
:10806000BFE7194A194B1268511E8A411A74B8E7C2
:10807000154A164B1268DA72B3E7134A134B1268AB
:108080001A76AEE7104A114B12685A74A9E71E21FE
:108090000D4B1C4A1B68DBB213704B431A4ADEE7D8
:1080A000094B21681A680B002D3301241A70887F50
:1080B00000232200009403F09FFD054B1C70064B2B
:1080C0001C7083E7241B0020841C00202C1B002034
:1080D000C0180020BD180020BF180020601C002020
:1080E000BC1800209C1800202B1C0020131B002013
:1080F000071B0020061B0020051B0020C1180020C4
:10810000D4180020551B0020D71800207A4B216876
:108110001A680B002E33C8E7774B21681A680B00EA
:108120002F33C2E7744A754B1268511E8A419A7404
:1081300057E7714B1A68724B5BE76F4B1A68714BCC
:108140001A7003F04BFA704BCAE6704B6A4A126819
:10815000511E8A414DE7684B21681A680B00343381
:10816000A3E7654B1A686A4B43E7634A634B12689F
:108170005A7636E7604B1B685A1E9341654A6EE794
:108180000A225D4B1B685343634A138029E7236827
:10819000594A31331268B9E6604B43E7564B6048A1
:1081A0001C68604B2200511E8A4100211A705E4BF0
:1081B000142219700AF00CFF002C01D1FBF765FCAA
:1081C0000122514B1A70594B13E74B4B1A68584B0D
:1081D0000FE7494B1A68574B0BE72368464A33337E
:1081E000126893E6444B012418680023C0B21A00B9
:1081F0001900009403F000FD02224F4B1A705EE755
:108200003D4B1868431E9841C0B203F0B5FADDE655
:10821000394B4A491B680A2B08D10A780132D2B27D
:108220000A70022A00D8D1E6454A18E700220A70EF
:10823000434ADBB21370092B00D0D2E603F0DCFD19
:10824000CFE62D4A3F4B1268511E8A411A70022216
:10825000394B1A703C4B43E6274B3C481B68C380A4
:1082600003F09EFCB2E6244B1A68394B03E705ACD9
:108270002200384B23CB23C203CB03C21E4B1D6805
:1082800005F07EF8344B4338ED0080005B1902594D
:108290001B79E4E6314BC5E6174A314B12681A7078
:1082A000304B1DE6144B1B685A1E93412E4ADBB21D
:1082B00013702E4AD3E62E4BB4E62E4BB2E62E4B6D
:1082C000B0E62E4B42E72E4B40E72E4B3EE72E4BBF
:1082D0003CE7094A2D4B1268511E8A411A7002F080
